{
  "address": "0x109A072ba60B380dA7F9112230A12B5bCC67E6Ad",
  "abi": [
    {
      "inputs": [],
      "stateMutability": "nonpayable",
      "type": "constructor"
    },
    {
      "anonymous": false,
      "inputs": [
        {
          "indexed": true,
          "internalType": "address",
          "name": "owner",
          "type": "address"
        },
        {
          "indexed": true,
          "internalType": "address",
          "name": "approved",
          "type": "address"
        },
        {
          "indexed": true,
          "internalType": "uint256",
          "name": "tokenId",
          "type": "uint256"
        }
      ],
      "name": "Approval",
      "type": "event"
    },
    {
      "anonymous": false,
      "inputs": [
        {
          "indexed": true,
          "internalType": "address",
          "name": "owner",
          "type": "address"
        },
        {
          "indexed": true,
          "internalType": "address",
          "name": "operator",
          "type": "address"
        },
        {
          "indexed": false,
          "internalType": "bool",
          "name": "approved",
          "type": "bool"
        }
      ],
      "name": "ApprovalForAll",
      "type": "event"
    },
    {
      "anonymous": false,
      "inputs": [
        {
          "indexed": true,
          "internalType": "address",
          "name": "donor",
          "type": "address"
        },
        {
          "indexed": true,
          "internalType": "uint256",
          "name": "tokenId",
          "type": "uint256"
        },
        {
          "indexed": false,
          "internalType": "uint256",
          "name": "value",
          "type": "uint256"
        }
      ],
      "name": "Donation",
      "type": "event"
    },
    {
      "anonymous": false,
      "inputs": [
        {
          "indexed": true,
          "internalType": "uint256",
          "name": "to",
          "type": "uint256"
        },
        {
          "indexed": true,
          "internalType": "uint256",
          "name": "from",
          "type": "uint256"
        },
        {
          "indexed": false,
          "internalType": "uint256",
          "name": "valueClaimed",
          "type": "uint256"
        }
      ],
      "name": "DonationClaimed",
      "type": "event"
    },
    {
      "anonymous": false,
      "inputs": [
        {
          "indexed": true,
          "internalType": "uint256",
          "name": "from",
          "type": "uint256"
        },
        {
          "indexed": true,
          "internalType": "uint256",
          "name": "to",
          "type": "uint256"
        }
      ],
      "name": "FollowMePut",
      "type": "event"
    },
    {
      "anonymous": false,
      "inputs": [
        {
          "indexed": true,
          "internalType": "address",
          "name": "previousOwner",
          "type": "address"
        },
        {
          "indexed": true,
          "internalType": "address",
          "name": "newOwner",
          "type": "address"
        }
      ],
      "name": "OwnershipTransferred",
      "type": "event"
    },
    {
      "anonymous": false,
      "inputs": [
        {
          "indexed": true,
          "internalType": "address",
          "name": "from",
          "type": "address"
        },
        {
          "indexed": true,
          "internalType": "address",
          "name": "to",
          "type": "address"
        },
        {
          "indexed": true,
          "internalType": "uint256",
          "name": "tokenId",
          "type": "uint256"
        }
      ],
      "name": "Transfer",
      "type": "event"
    },
    {
      "inputs": [
        {
          "internalType": "address",
          "name": "to",
          "type": "address"
        },
        {
          "internalType": "uint256",
          "name": "tokenId",
          "type": "uint256"
        }
      ],
      "name": "approve",
      "outputs": [],
      "stateMutability": "nonpayable",
      "type": "function"
    },
    {
      "inputs": [
        {
          "internalType": "address",
          "name": "owner",
          "type": "address"
        }
      ],
      "name": "balanceOf",
      "outputs": [
        {
          "internalType": "uint256",
          "name": "",
          "type": "uint256"
        }
      ],
      "stateMutability": "view",
      "type": "function"
    },
    {
      "inputs": [
        {
          "internalType": "uint256",
          "name": "tokenId",
          "type": "uint256"
        }
      ],
      "name": "claimToOwner",
      "outputs": [],
      "stateMutability": "nonpayable",
      "type": "function"
    },
    {
      "inputs": [
        {
          "internalType": "uint256",
          "name": "to",
          "type": "uint256"
        },
        {
          "internalType": "uint256",
          "name": "from",
          "type": "uint256"
        }
      ],
      "name": "claimToRef",
      "outputs": [],
      "stateMutability": "nonpayable",
      "type": "function"
    },
    {
      "inputs": [
        {
          "internalType": "uint256",
          "name": "to",
          "type": "uint256"
        },
        {
          "internalType": "uint256",
          "name": "from",
          "type": "uint256"
        }
      ],
      "name": "claimable",
      "outputs": [
        {
          "internalType": "uint256",
          "name": "",
          "type": "uint256"
        }
      ],
      "stateMutability": "view",
      "type": "function"
    },
    {
      "inputs": [
        {
          "internalType": "string",
          "name": "tokenURI",
          "type": "string"
        },
        {
          "internalType": "uint256[]",
          "name": "refs",
          "type": "uint256[]"
        }
      ],
      "name": "createToken",
      "outputs": [
        {
          "internalType": "uint256",
          "name": "",
          "type": "uint256"
        }
      ],
      "stateMutability": "nonpayable",
      "type": "function"
    },
    {
      "inputs": [
        {
          "internalType": "uint256",
          "name": "tokenId",
          "type": "uint256"
        }
      ],
      "name": "donate",
      "outputs": [],
      "stateMutability": "payable",
      "type": "function"
    },
    {
      "inputs": [
        {
          "internalType": "uint256",
          "name": "tokenId",
          "type": "uint256"
        }
      ],
      "name": "getApproved",
      "outputs": [
        {
          "internalType": "address",
          "name": "",
          "type": "address"
        }
      ],
      "stateMutability": "view",
      "type": "function"
    },
    {
      "inputs": [],
      "name": "getFee",
      "outputs": [
        {
          "internalType": "uint256",
          "name": "",
          "type": "uint256"
        },
        {
          "internalType": "uint256",
          "name": "",
          "type": "uint256"
        }
      ],
      "stateMutability": "view",
      "type": "function"
    },
    {
      "inputs": [
        {
          "internalType": "uint256",
          "name": "tokenId",
          "type": "uint256"
        }
      ],
      "name": "getReferences",
      "outputs": [
        {
          "internalType": "uint256[]",
          "name": "",
          "type": "uint256[]"
        }
      ],
      "stateMutability": "view",
      "type": "function"
    },
    {
      "inputs": [],
      "name": "getSplit",
      "outputs": [
        {
          "internalType": "uint256",
          "name": "",
          "type": "uint256"
        },
        {
          "internalType": "uint256",
          "name": "",
          "type": "uint256"
        }
      ],
      "stateMutability": "view",
      "type": "function"
    },
    {
      "inputs": [],
      "name": "getTax",
      "outputs": [
        {
          "internalType": "uint256",
          "name": "",
          "type": "uint256"
        },
        {
          "internalType": "uint256",
          "name": "",
          "type": "uint256"
        }
      ],
      "stateMutability": "view",
      "type": "function"
    },
    {
      "inputs": [],
      "name": "getTreasuryBalance",
      "outputs": [
        {
          "internalType": "uint256",
          "name": "",
          "type": "uint256"
        }
      ],
      "stateMutability": "view",
      "type": "function"
    },
    {
      "inputs": [
        {
          "internalType": "address",
          "name": "owner",
          "type": "address"
        },
        {
          "internalType": "address",
          "name": "operator",
          "type": "address"
        }
      ],
      "name": "isApprovedForAll",
      "outputs": [
        {
          "internalType": "bool",
          "name": "",
          "type": "bool"
        }
      ],
      "stateMutability": "view",
      "type": "function"
    },
    {
      "inputs": [],
      "name": "name",
      "outputs": [
        {
          "internalType": "string",
          "name": "",
          "type": "string"
        }
      ],
      "stateMutability": "view",
      "type": "function"
    },
    {
      "inputs": [],
      "name": "numberOfTokens",
      "outputs": [
        {
          "internalType": "uint256",
          "name": "",
          "type": "uint256"
        }
      ],
      "stateMutability": "view",
      "type": "function"
    },
    {
      "inputs": [],
      "name": "owner",
      "outputs": [
        {
          "internalType": "address",
          "name": "",
          "type": "address"
        }
      ],
      "stateMutability": "view",
      "type": "function"
    },
    {
      "inputs": [
        {
          "internalType": "uint256",
          "name": "tokenId",
          "type": "uint256"
        }
      ],
      "name": "ownerOf",
      "outputs": [
        {
          "internalType": "address",
          "name": "",
          "type": "address"
        }
      ],
      "stateMutability": "view",
      "type": "function"
    },
    {
      "inputs": [],
      "name": "renounceOwnership",
      "outputs": [],
      "stateMutability": "nonpayable",
      "type": "function"
    },
    {
      "inputs": [
        {
          "internalType": "address",
          "name": "from",
          "type": "address"
        },
        {
          "internalType": "address",
          "name": "to",
          "type": "address"
        },
        {
          "internalType": "uint256",
          "name": "tokenId",
          "type": "uint256"
        }
      ],
      "name": "safeTransferFrom",
      "outputs": [],
      "stateMutability": "nonpayable",
      "type": "function"
    },
    {
      "inputs": [
        {
          "internalType": "address",
          "name": "from",
          "type": "address"
        },
        {
          "internalType": "address",
          "name": "to",
          "type": "address"
        },
        {
          "internalType": "uint256",
          "name": "tokenId",
          "type": "uint256"
        },
        {
          "internalType": "bytes",
          "name": "data",
          "type": "bytes"
        }
      ],
      "name": "safeTransferFrom",
      "outputs": [],
      "stateMutability": "nonpayable",
      "type": "function"
    },
    {
      "inputs": [
        {
          "internalType": "address",
          "name": "operator",
          "type": "address"
        },
        {
          "internalType": "bool",
          "name": "approved",
          "type": "bool"
        }
      ],
      "name": "setApprovalForAll",
      "outputs": [],
      "stateMutability": "nonpayable",
      "type": "function"
    },
    {
      "inputs": [
        {
          "internalType": "uint24",
          "name": "base",
          "type": "uint24"
        },
        {
          "internalType": "uint8",
          "name": "multiplier",
          "type": "uint8"
        }
      ],
      "name": "setClaimFee",
      "outputs": [],
      "stateMutability": "nonpayable",
      "type": "function"
    },
    {
      "inputs": [
        {
          "internalType": "uint256",
          "name": "from",
          "type": "uint256"
        },
        {
          "internalType": "uint256",
          "name": "to",
          "type": "uint256"
        }
      ],
      "name": "setFollowMe",
      "outputs": [],
      "stateMutability": "nonpayable",
      "type": "function"
    },
    {
      "inputs": [
        {
          "internalType": "uint8",
          "name": "base",
          "type": "uint8"
        },
        {
          "internalType": "uint8",
          "name": "multiplier",
          "type": "uint8"
        }
      ],
      "name": "setSplit",
      "outputs": [],
      "stateMutability": "nonpayable",
      "type": "function"
    },
    {
      "inputs": [
        {
          "internalType": "uint24",
          "name": "base",
          "type": "uint24"
        },
        {
          "internalType": "uint8",
          "name": "multiplier",
          "type": "uint8"
        }
      ],
      "name": "setTax",
      "outputs": [],
      "stateMutability": "nonpayable",
      "type": "function"
    },
    {
      "inputs": [
        {
          "internalType": "bytes4",
          "name": "interfaceId",
          "type": "bytes4"
        }
      ],
      "name": "supportsInterface",
      "outputs": [
        {
          "internalType": "bool",
          "name": "",
          "type": "bool"
        }
      ],
      "stateMutability": "view",
      "type": "function"
    },
    {
      "inputs": [],
      "name": "symbol",
      "outputs": [
        {
          "internalType": "string",
          "name": "",
          "type": "string"
        }
      ],
      "stateMutability": "view",
      "type": "function"
    },
    {
      "inputs": [
        {
          "internalType": "uint256",
          "name": "tokenId",
          "type": "uint256"
        }
      ],
      "name": "tokenDonationBalance",
      "outputs": [
        {
          "internalType": "uint256",
          "name": "",
          "type": "uint256"
        }
      ],
      "stateMutability": "view",
      "type": "function"
    },
    {
      "inputs": [
        {
          "internalType": "uint256",
          "name": "tokenId",
          "type": "uint256"
        }
      ],
      "name": "tokenTotalDonated",
      "outputs": [
        {
          "internalType": "uint256",
          "name": "",
          "type": "uint256"
        }
      ],
      "stateMutability": "view",
      "type": "function"
    },
    {
      "inputs": [
        {
          "internalType": "uint256",
          "name": "tokenId",
          "type": "uint256"
        }
      ],
      "name": "tokenURI",
      "outputs": [
        {
          "internalType": "string",
          "name": "",
          "type": "string"
        }
      ],
      "stateMutability": "view",
      "type": "function"
    },
    {
      "inputs": [
        {
          "internalType": "address",
          "name": "from",
          "type": "address"
        },
        {
          "internalType": "address",
          "name": "to",
          "type": "address"
        },
        {
          "internalType": "uint256",
          "name": "tokenId",
          "type": "uint256"
        }
      ],
      "name": "transferFrom",
      "outputs": [],
      "stateMutability": "nonpayable",
      "type": "function"
    },
    {
      "inputs": [
        {
          "internalType": "address",
          "name": "newOwner",
          "type": "address"
        }
      ],
      "name": "transferOwnership",
      "outputs": [],
      "stateMutability": "nonpayable",
      "type": "function"
    }
  ],
  "transactionHash": "0x540f83972a8ecca605a73bb10976efec46ea166e76842cafb4ba8abb4ab4a5e9",
  "args": [],
  "numDeployments": 1,
  "solcInputHash": "e76d0951663f399f5095a4674ee88954",
  "bytecode": "0x60806040523480156200001157600080fd5b506040518060400160405280600c81526020017f4f50656e20536369656e636500000000000000000000000000000000000000008152506040518060400160405280600481526020017f4f5053500000000000000000000000000000000000000000000000000000000081525081600090805190602001906200009692919062000260565b508060019080519060200190620000af92919062000260565b5050506001600781905550620000da620000ce6200019260201b60201c565b6200019a60201b60201c565b6103e8601060006101000a81548162ffffff021916908362ffffff1602179055506003601060036101000a81548160ff021916908360ff1602179055506103e8601060046101000a81548162ffffff021916908362ffffff1602179055506001601060076101000a81548160ff021916908360ff1602179055506003601060086101000a81548160ff021916908360ff1602179055506002601060096101000a81548160ff021916908360ff16021790555062000375565b600033905090565b6000600860009054906101000a900473ffffffffffffffffffffffffffffffffffffffff16905081600860006101000a81548173ffffffffffffffffffffffffffffffffffffffff021916908373ffffffffffffffffffffffffffffffffffffffff1602179055508173ffffffffffffffffffffffffffffffffffffffff168173ffffffffffffffffffffffffffffffffffffffff167f8be0079c531659141344cd1fd0a4f28419497f9722a3daafe3b4186f6b6457e060405160405180910390a35050565b8280546200026e906200033f565b90600052602060002090601f016020900481019282620002925760008555620002de565b82601f10620002ad57805160ff1916838001178555620002de565b82800160010185558215620002de579182015b82811115620002dd578251825591602001919060010190620002c0565b5b509050620002ed9190620002f1565b5090565b5b808211156200030c576000816000905550600101620002f2565b5090565b7f4e487b7100000000000000000000000000000000000000000000000000000000600052602260045260246000fd5b600060028204905060018216806200035857607f821691505b602082108114156200036f576200036e62000310565b5b50919050565b61476d80620003856000396000f3fe6080604052600436106101ee5760003560e01c80638da5cb5b1161010d578063c87b56dd116100a0578063eaf684cf1161006f578063eaf684cf14610722578063f14faf6f1461075f578063f2fde38b1461077b578063f3a99c08146107a4578063f9f16ef2146107e1576101ee565b8063c87b56dd14610653578063ced72f8714610690578063e985e9c5146106bc578063eab58596146106f9576101ee565b80639d5f08f1116100dc5780639d5f08f11461059b578063a22cb465146105d8578063af51694b14610601578063b88d4fde1461062a576101ee565b80638da5cb5b146104f157806395d89b411461051c5780639b5655dc146105475780639c8cc98114610572576101ee565b8063413669f0116101855780636352211e116101545780636352211e1461043757806370a0823114610474578063715018a6146104b15780637d2d379a146104c8576101ee565b8063413669f01461039057806342842e0e146103b957806354b762a6146103e25780635e2879451461040e576101ee565b806312ab3c27116101c157806312ab3c27146102c157806323b872dd146102ed5780632640fc3e146103165780633cfc7ae214610353576101ee565b806301ffc9a7146101f357806306fdde0314610230578063081812fc1461025b578063095ea7b314610298575b600080fd5b3480156101ff57600080fd5b5061021a60048036038101906102159190612dcb565b61080c565b6040516102279190612e13565b60405180910390f35b34801561023c57600080fd5b506102456108ee565b6040516102529190612ec7565b60405180910390f35b34801561026757600080fd5b50610282600480360381019061027d9190612f1f565b610980565b60405161028f9190612f8d565b60405180910390f35b3480156102a457600080fd5b506102bf60048036038101906102ba9190612fd4565b6109c6565b005b3480156102cd57600080fd5b506102d6610ade565b6040516102e4929190613023565b60405180910390f35b3480156102f957600080fd5b50610314600480360381019061030f919061304c565b610b15565b005b34801561032257600080fd5b5061033d6004803603810190610338919061309f565b610b75565b60405161034a91906130df565b60405180910390f35b34801561035f57600080fd5b5061037a60048036038101906103759190612f1f565b610d03565b60405161038791906131b8565b60405180910390f35b34801561039c57600080fd5b506103b760048036038101906103b2919061309f565b610dc6565b005b3480156103c557600080fd5b506103e060048036038101906103db919061304c565b610ff0565b005b3480156103ee57600080fd5b506103f7611010565b604051610405929190613023565b60405180910390f35b34801561041a57600080fd5b506104356004803603810190610430919061309f565b61104b565b005b34801561044357600080fd5b5061045e60048036038101906104599190612f1f565b6110dd565b60405161046b9190612f8d565b60405180910390f35b34801561048057600080fd5b5061049b600480360381019061049691906131da565b611164565b6040516104a891906130df565b60405180910390f35b3480156104bd57600080fd5b506104c661121c565b005b3480156104d457600080fd5b506104ef60048036038101906104ea919061327b565b611230565b005b3480156104fd57600080fd5b50610506611276565b6040516105139190612f8d565b60405180910390f35b34801561052857600080fd5b506105316112a0565b60405161053e9190612ec7565b60405180910390f35b34801561055357600080fd5b5061055c611332565b60405161056991906130df565b60405180910390f35b34801561057e57600080fd5b50610599600480360381019061059491906132bb565b61133c565b005b3480156105a757600080fd5b506105c260048036038101906105bd9190612f1f565b611390565b6040516105cf91906130df565b60405180910390f35b3480156105e457600080fd5b506105ff60048036038101906105fa9190613327565b6113cb565b005b34801561060d57600080fd5b5061062860048036038101906106239190612f1f565b6113e1565b005b34801561063657600080fd5b50610651600480360381019061064c919061349c565b61169b565b005b34801561065f57600080fd5b5061067a60048036038101906106759190612f1f565b6116fd565b6040516106879190612ec7565b60405180910390f35b34801561069c57600080fd5b506106a5611810565b6040516106b3929190613023565b60405180910390f35b3480156106c857600080fd5b506106e360048036038101906106de919061351f565b61184b565b6040516106f09190612e13565b60405180910390f35b34801561070557600080fd5b50610720600480360381019061071b919061327b565b6118df565b005b34801561072e57600080fd5b50610749600480360381019061074491906136c8565b611925565b60405161075691906130df565b60405180910390f35b61077960048036038101906107749190612f1f565b611966565b005b34801561078757600080fd5b506107a2600480360381019061079d91906131da565b611af5565b005b3480156107b057600080fd5b506107cb60048036038101906107c69190612f1f565b611b79565b6040516107d891906130df565b60405180910390f35b3480156107ed57600080fd5b506107f6611b96565b60405161080391906130df565b60405180910390f35b60007f80ac58cd000000000000000000000000000000000000000000000000000000007bffffffffffffffffffffffffffffffffffffffffffffffffffffffff1916827bffffffffffffffffffffffffffffffffffffffffffffffffffffffff191614806108d757507f5b5e139f000000000000000000000000000000000000000000000000000000007bffffffffffffffffffffffffffffffffffffffffffffffffffffffff1916827bffffffffffffffffffffffffffffffffffffffffffffffffffffffff1916145b806108e757506108e682611ba7565b5b9050919050565b6060600080546108fd9061376f565b80601f01602080910402602001604051908101604052809291908181526020018280546109299061376f565b80156109765780601f1061094b57610100808354040283529160200191610976565b820191906000526020600020905b81548152906001019060200180831161095957829003601f168201915b5050505050905090565b600061098b82611c11565b6004600083815260200190815260200160002060009054906101000a900473ffffffffffffffffffffffffffffffffffffffff169050919050565b60006109d1826110dd565b90508073ffffffffffffffffffffffffffffffffffffffff168373ffffffffffffffffffffffffffffffffffffffff161415610a42576040517f08c379a0000000000000000000000000000000000000000000000000000000008152600401610a3990613813565b60405180910390fd5b8073ffffffffffffffffffffffffffffffffffffffff16610a61611c5c565b73ffffffffffffffffffffffffffffffffffffffff161480610a905750610a8f81610a8a611c5c565b61184b565b5b610acf576040517f08c379a0000000000000000000000000000000000000000000000000000000008152600401610ac6906138a5565b60405180910390fd5b610ad98383611c64565b505050565b600080601060099054906101000a900460ff16601060089054906101000a900460ff168160ff1691508060ff169050915091509091565b610b26610b20611c5c565b82611d1d565b610b65576040517f08c379a0000000000000000000000000000000000000000000000000000000008152600401610b5c90613937565b60405180910390fd5b610b70838383611db2565b505050565b600080600d6000848152602001908152602001600020805490501115610ce05781831415610c2157600c6000848152602001908152602001600020600084815260200190815260200160002054601060089054906101000a900460ff1660ff16601060099054906101000a900460ff1660ff16600a600087815260200190815260200160002054610c069190613986565b610c109190613a0f565b610c1a9190613a40565b9050610cfd565b600c6000848152602001908152602001600020600083815260200190815260200160002054600d600084815260200190815260200160002080549050601060089054906101000a900460ff1660ff16601060099054906101000a900460ff16601060089054906101000a900460ff16610c9a9190613a74565b60ff16600a600087815260200190815260200160002054610cbb9190613986565b610cc59190613a0f565b610ccf9190613a0f565b610cd99190613a40565b9050610cfd565b81831415610cf857610cf182611390565b9050610cfd565b600090505b92915050565b606060008210158015610d1e5750610d1b60096120ac565b82105b610d5d576040517f08c379a0000000000000000000000000000000000000000000000000000000008152600401610d5490613b1a565b60405180910390fd5b600d6000838152602001908152602001600020805480602002602001604051908101604052809291908181526020018280548015610dba57602002820191906000526020600020905b815481526020019060010190808311610da6575b50505050509050919050565b610dce6120ba565b6000610dda8383610b75565b905060008111610e1f576040517f08c379a0000000000000000000000000000000000000000000000000000000008152600401610e1690613bac565b60405180910390fd5b6000601060009054906101000a900462ffffff1662ffffff16601060039054906101000a900460ff1660ff1683610e569190613986565b610e609190613a0f565b905082847fa7116c38c2fc13dbd2d57ce586bb24784466a4b1f54b8f2676b220044a26f55d84604051610e9391906130df565b60405180910390a381600b60008581526020019081526020016000206000828254610ebe9190613bcc565b9250508190555081600c600086815260200190815260200160002060008581526020019081526020016000206000828254610ef99190613bcc565b925050819055508082610f0c9190613a40565b600a60008681526020019081526020016000206000828254610f2e9190613bcc565b9250508190555060003373ffffffffffffffffffffffffffffffffffffffff1682604051610f5b90613c53565b60006040518083038185875af1925050503d8060008114610f98576040519150601f19603f3d011682016040523d82523d6000602084013e610f9d565b606091505b5050905080610fe1576040517f08c379a0000000000000000000000000000000000000000000000000000000008152600401610fd890613cda565b60405180910390fd5b505050610fec61210a565b5050565b61100b8383836040518060200160405280600081525061169b565b505050565b600080601060079054906101000a900460ff16601060049054906101000a900462ffffff168160ff1691508062ffffff169050915091509091565b61105482612114565b73ffffffffffffffffffffffffffffffffffffffff163373ffffffffffffffffffffffffffffffffffffffff16146110c1576040517f08c379a00000000000000000000000000000000000000000000000000000000081526004016110b890613d6c565b60405180910390fd5b80600e6000848152602001908152602001600020819055505050565b6000806110e983612114565b9050600073ffffffffffffffffffffffffffffffffffffffff168173ffffffffffffffffffffffffffffffffffffffff16141561115b576040517f08c379a000000000000000000000000000000000000000000000000000000000815260040161115290613dd8565b60405180910390fd5b80915050919050565b60008073ffffffffffffffffffffffffffffffffffffffff168273ffffffffffffffffffffffffffffffffffffffff1614156111d5576040517f08c379a00000000000000000000000000000000000000000000000000000000081526004016111cc90613e6a565b60405180910390fd5b600360008373ffffffffffffffffffffffffffffffffffffffff1673ffffffffffffffffffffffffffffffffffffffff168152602001908152602001600020549050919050565b611224612151565b61122e60006121cf565b565b611238612151565b81601060046101000a81548162ffffff021916908362ffffff16021790555080601060076101000a81548160ff021916908360ff1602179055505050565b6000600860009054906101000a900473ffffffffffffffffffffffffffffffffffffffff16905090565b6060600180546112af9061376f565b80601f01602080910402602001604051908101604052809291908181526020018280546112db9061376f565b80156113285780601f106112fd57610100808354040283529160200191611328565b820191906000526020600020905b81548152906001019060200180831161130b57829003601f168201915b5050505050905090565b6000600f54905090565b611344612151565b8060ff168260ff161161135657600080fd5b81601060086101000a81548160ff021916908360ff16021790555080601060096101000a81548160ff021916908360ff1602179055505050565b6000600b600083815260200190815260200160002054600a6000848152602001908152602001600020546113c49190613a40565b9050919050565b6113dd6113d6611c5c565b8383612295565b5050565b6113e96120ba565b60006113f58283610b75565b90506000811161143a576040517f08c379a000000000000000000000000000000000000000000000000000000000815260040161143190613efc565b60405180910390fd5b6000601060009054906101000a900462ffffff1662ffffff16601060039054906101000a900460ff1660ff16836114719190613986565b61147b9190613a0f565b905082837fa7116c38c2fc13dbd2d57ce586bb24784466a4b1f54b8f2676b220044a26f55d846040516114ae91906130df565b60405180910390a381600b600085815260200190815260200160002060008282546114d99190613bcc565b9250508190555081600c6000858152602001908152602001600020600085815260200190815260200160002060008282546115149190613bcc565b925050819055506000611526846110dd565b905060008173ffffffffffffffffffffffffffffffffffffffff16838561154d9190613a40565b60405161155990613c53565b60006040518083038185875af1925050503d8060008114611596576040519150601f19603f3d011682016040523d82523d6000602084013e61159b565b606091505b50509050806115df576040517f08c379a00000000000000000000000000000000000000000000000000000000081526004016115d690613f68565b60405180910390fd5b60003373ffffffffffffffffffffffffffffffffffffffff168460405161160590613c53565b60006040518083038185875af1925050503d8060008114611642576040519150601f19603f3d011682016040523d82523d6000602084013e611647565b606091505b505090508061168b576040517f08c379a000000000000000000000000000000000000000000000000000000000815260040161168290613cda565b60405180910390fd5b505050505061169861210a565b50565b6116ac6116a6611c5c565b83611d1d565b6116eb576040517f08c379a00000000000000000000000000000000000000000000000000000000081526004016116e290613937565b60405180910390fd5b6116f784848484612402565b50505050565b606061170882611c11565b60006006600084815260200190815260200160002080546117289061376f565b80601f01602080910402602001604051908101604052809291908181526020018280546117549061376f565b80156117a15780601f10611776576101008083540402835291602001916117a1565b820191906000526020600020905b81548152906001019060200180831161178457829003601f168201915b5050505050905060006117b261245e565b90506000815114156117c857819250505061180b565b6000825111156117fd5780826040516020016117e5929190613fc4565b6040516020818303038152906040529250505061180b565b61180684612475565b925050505b919050565b600080601060039054906101000a900460ff16601060009054906101000a900462ffffff168160ff1691508062ffffff169050915091509091565b6000600560008473ffffffffffffffffffffffffffffffffffffffff1673ffffffffffffffffffffffffffffffffffffffff16815260200190815260200160002060008373ffffffffffffffffffffffffffffffffffffffff1673ffffffffffffffffffffffffffffffffffffffff16815260200190815260200160002060009054906101000a900460ff16905092915050565b6118e7612151565b81601060006101000a81548162ffffff021916908362ffffff16021790555080601060036101000a81548160ff021916908360ff1602179055505050565b60008061193260096120ac565b905061193e60096124dd565b61194833826124f3565b6119528185612711565b61195c8184612785565b8091505092915050565b61196e6120ba565b61197860096120ac565b81106119b9576040517f08c379a00000000000000000000000000000000000000000000000000000000081526004016119b090614034565b60405180910390fd5b6000601060049054906101000a900462ffffff1662ffffff16601060079054906101000a900460ff1660ff16346119f09190613986565b6119fa9190613a0f565b90506000600e60008481526020019081526020016000205414611a2e57600e60008381526020019081526020016000205491505b611a5f8134611a3d9190613a40565b600a60008581526020019081526020016000205461283690919063ffffffff16565b600a600084815260200190815260200160002081905550813373ffffffffffffffffffffffffffffffffffffffff167f106aac375bbcf013d1e52338bbf9e740009a1a3a6869f8daa1b72aa1620f5fec8334611abb9190613a40565b604051611ac891906130df565b60405180910390a380600f6000828254611ae29190613bcc565b9250508190555050611af261210a565b50565b611afd612151565b600073ffffffffffffffffffffffffffffffffffffffff168173ffffffffffffffffffffffffffffffffffffffff161415611b6d576040517f08c379a0000000000000000000000000000000000000000000000000000000008152600401611b64906140c6565b60405180910390fd5b611b76816121cf565b50565b6000600a6000838152602001908152602001600020549050919050565b6000611ba260096120ac565b905090565b60007f01ffc9a7000000000000000000000000000000000000000000000000000000007bffffffffffffffffffffffffffffffffffffffffffffffffffffffff1916827bffffffffffffffffffffffffffffffffffffffffffffffffffffffff1916149050919050565b611c1a8161284c565b611c59576040517f08c379a0000000000000000000000000000000000000000000000000000000008152600401611c5090613dd8565b60405180910390fd5b50565b600033905090565b816004600083815260200190815260200160002060006101000a81548173ffffffffffffffffffffffffffffffffffffffff021916908373ffffffffffffffffffffffffffffffffffffffff160217905550808273ffffffffffffffffffffffffffffffffffffffff16611cd7836110dd565b73ffffffffffffffffffffffffffffffffffffffff167f8c5be1e5ebec7d5bd14f71427d1e84f3dd0314c0f7b2291e5b200ac8c7c3b92560405160405180910390a45050565b600080611d29836110dd565b90508073ffffffffffffffffffffffffffffffffffffffff168473ffffffffffffffffffffffffffffffffffffffff161480611d6b5750611d6a818561184b565b5b80611da957508373ffffffffffffffffffffffffffffffffffffffff16611d9184610980565b73ffffffffffffffffffffffffffffffffffffffff16145b91505092915050565b8273ffffffffffffffffffffffffffffffffffffffff16611dd2826110dd565b73ffffffffffffffffffffffffffffffffffffffff1614611e28576040517f08c379a0000000000000000000000000000000000000000000000000000000008152600401611e1f90614158565b60405180910390fd5b600073ffffffffffffffffffffffffffffffffffffffff168273ffffffffffffffffffffffffffffffffffffffff161415611e98576040517f08c379a0000000000000000000000000000000000000000000000000000000008152600401611e8f906141ea565b60405180910390fd5b611ea5838383600161288d565b8273ffffffffffffffffffffffffffffffffffffffff16611ec5826110dd565b73ffffffffffffffffffffffffffffffffffffffff1614611f1b576040517f08c379a0000000000000000000000000000000000000000000000000000000008152600401611f1290614158565b60405180910390fd5b6004600082815260200190815260200160002060006101000a81549073ffffffffffffffffffffffffffffffffffffffff02191690556001600360008573ffffffffffffffffffffffffffffffffffffffff1673ffffffffffffffffffffffffffffffffffffffff168152602001908152602001600020600082825403925050819055506001600360008473ffffffffffffffffffffffffffffffffffffffff1673ffffffffffffffffffffffffffffffffffffffff16815260200190815260200160002060008282540192505081905550816002600083815260200190815260200160002060006101000a81548173ffffffffffffffffffffffffffffffffffffffff021916908373ffffffffffffffffffffffffffffffffffffffff160217905550808273ffffffffffffffffffffffffffffffffffffffff168473ffffffffffffffffffffffffffffffffffffffff167fddf252ad1be2c89b69c2b068fc378daa952ba7f163c4a11628f55a4df523b3ef60405160405180910390a46120a78383836001612893565b505050565b600081600001549050919050565b60026007541415612100576040517f08c379a00000000000000000000000000000000000000000000000000000000081526004016120f790614256565b60405180910390fd5b6002600781905550565b6001600781905550565b60006002600083815260200190815260200160002060009054906101000a900473ffffffffffffffffffffffffffffffffffffffff169050919050565b612159611c5c565b73ffffffffffffffffffffffffffffffffffffffff16612177611276565b73ffffffffffffffffffffffffffffffffffffffff16146121cd576040517f08c379a00000000000000000000000000000000000000000000000000000000081526004016121c4906142c2565b60405180910390fd5b565b6000600860009054906101000a900473ffffffffffffffffffffffffffffffffffffffff16905081600860006101000a81548173ffffffffffffffffffffffffffffffffffffffff021916908373ffffffffffffffffffffffffffffffffffffffff1602179055508173ffffffffffffffffffffffffffffffffffffffff168173ffffffffffffffffffffffffffffffffffffffff167f8be0079c531659141344cd1fd0a4f28419497f9722a3daafe3b4186f6b6457e060405160405180910390a35050565b8173ffffffffffffffffffffffffffffffffffffffff168373ffffffffffffffffffffffffffffffffffffffff161415612304576040517f08c379a00000000000000000000000000000000000000000000000000000000081526004016122fb9061432e565b60405180910390fd5b80600560008573ffffffffffffffffffffffffffffffffffffffff1673ffffffffffffffffffffffffffffffffffffffff16815260200190815260200160002060008473ffffffffffffffffffffffffffffffffffffffff1673ffffffffffffffffffffffffffffffffffffffff16815260200190815260200160002060006101000a81548160ff0219169083151502179055508173ffffffffffffffffffffffffffffffffffffffff168373ffffffffffffffffffffffffffffffffffffffff167f17307eab39ab6107e8899845ad3d59bd9653f200f220920489ca2b5937696c31836040516123f59190612e13565b60405180910390a3505050565b61240d848484611db2565b61241984848484612899565b612458576040517f08c379a000000000000000000000000000000000000000000000000000000000815260040161244f906143c0565b60405180910390fd5b50505050565b606060405180602001604052806000815250905090565b606061248082611c11565b600061248a61245e565b905060008151116124aa57604051806020016040528060008152506124d5565b806124b484612a21565b6040516020016124c5929190613fc4565b6040516020818303038152906040525b915050919050565b6001816000016000828254019250508190555050565b600073ffffffffffffffffffffffffffffffffffffffff168273ffffffffffffffffffffffffffffffffffffffff161415612563576040517f08c379a000000000000000000000000000000000000000000000000000000000815260040161255a9061442c565b60405180910390fd5b61256c8161284c565b156125ac576040517f08c379a00000000000000000000000000000000000000000000000000000000081526004016125a390614498565b60405180910390fd5b6125ba60008383600161288d565b6125c38161284c565b15612603576040517f08c379a00000000000000000000000000000000000000000000000000000000081526004016125fa90614498565b60405180910390fd5b6001600360008473ffffffffffffffffffffffffffffffffffffffff1673ffffffffffffffffffffffffffffffffffffffff16815260200190815260200160002060008282540192505081905550816002600083815260200190815260200160002060006101000a81548173ffffffffffffffffffffffffffffffffffffffff021916908373ffffffffffffffffffffffffffffffffffffffff160217905550808273ffffffffffffffffffffffffffffffffffffffff16600073ffffffffffffffffffffffffffffffffffffffff167fddf252ad1be2c89b69c2b068fc378daa952ba7f163c4a11628f55a4df523b3ef60405160405180910390a461270d600083836001612893565b5050565b61271a8261284c565b612759576040517f08c379a00000000000000000000000000000000000000000000000000000000081526004016127509061452a565b60405180910390fd5b80600660008481526020019081526020016000209080519060200190612780929190612c6f565b505050565b60005b81518110156128095761279b60096120ac565b8282815181106127ae576127ad61454a565b5b6020026020010151106127f6576040517f08c379a00000000000000000000000000000000000000000000000000000000081526004016127ed906145eb565b60405180910390fd5b80806128019061460b565b915050612788565b81600d60008581526020019081526020016000209080519060200190612830929190612cf5565b50505050565b600081836128449190613bcc565b905092915050565b60008073ffffffffffffffffffffffffffffffffffffffff1661286e83612114565b73ffffffffffffffffffffffffffffffffffffffff1614159050919050565b50505050565b50505050565b60006128ba8473ffffffffffffffffffffffffffffffffffffffff16612af9565b15612a14578373ffffffffffffffffffffffffffffffffffffffff1663150b7a026128e3611c5c565b8786866040518563ffffffff1660e01b815260040161290594939291906146a9565b6020604051808303816000875af192505050801561294157506040513d601f19601f8201168201806040525081019061293e919061470a565b60015b6129c4573d8060008114612971576040519150601f19603f3d011682016040523d82523d6000602084013e612976565b606091505b506000815114156129bc576040517f08c379a00000000000000000000000000000000000000000000000000000000081526004016129b3906143c0565b60405180910390fd5b805181602001fd5b63150b7a0260e01b7bffffffffffffffffffffffffffffffffffffffffffffffffffffffff1916817bffffffffffffffffffffffffffffffffffffffffffffffffffffffff191614915050612a19565b600190505b949350505050565b606060006001612a3084612b1c565b01905060008167ffffffffffffffff811115612a4f57612a4e613371565b5b6040519080825280601f01601f191660200182016040528015612a815781602001600182028036833780820191505090505b509050600082602001820190505b600115612aee578080600190039150507f3031323334353637383961626364656600000000000000000000000000000000600a86061a8153600a8581612ad857612ad76139e0565b5b0494506000851415612ae957612aee565b612a8f565b819350505050919050565b6000808273ffffffffffffffffffffffffffffffffffffffff163b119050919050565b600080600090507a184f03e93ff9f4daa797ed6e38ed64bf6a1f0100000000000000008310612b7a577a184f03e93ff9f4daa797ed6e38ed64bf6a1f0100000000000000008381612b7057612b6f6139e0565b5b0492506040810190505b6d04ee2d6d415b85acef81000000008310612bb7576d04ee2d6d415b85acef81000000008381612bad57612bac6139e0565b5b0492506020810190505b662386f26fc100008310612be657662386f26fc100008381612bdc57612bdb6139e0565b5b0492506010810190505b6305f5e1008310612c0f576305f5e1008381612c0557612c046139e0565b5b0492506008810190505b6127108310612c34576127108381612c2a57612c296139e0565b5b0492506004810190505b60648310612c575760648381612c4d57612c4c6139e0565b5b0492506002810190505b600a8310612c66576001810190505b80915050919050565b828054612c7b9061376f565b90600052602060002090601f016020900481019282612c9d5760008555612ce4565b82601f10612cb657805160ff1916838001178555612ce4565b82800160010185558215612ce4579182015b82811115612ce3578251825591602001919060010190612cc8565b5b509050612cf19190612d42565b5090565b828054828255906000526020600020908101928215612d31579160200282015b82811115612d30578251825591602001919060010190612d15565b5b509050612d3e9190612d42565b5090565b5b80821115612d5b576000816000905550600101612d43565b5090565b6000604051905090565b600080fd5b600080fd5b60007fffffffff0000000000000000000000000000000000000000000000000000000082169050919050565b612da881612d73565b8114612db357600080fd5b50565b600081359050612dc581612d9f565b92915050565b600060208284031215612de157612de0612d69565b5b6000612def84828501612db6565b91505092915050565b60008115159050919050565b612e0d81612df8565b82525050565b6000602082019050612e286000830184612e04565b92915050565b600081519050919050565b600082825260208201905092915050565b60005b83811015612e68578082015181840152602081019050612e4d565b83811115612e77576000848401525b50505050565b6000601f19601f8301169050919050565b6000612e9982612e2e565b612ea38185612e39565b9350612eb3818560208601612e4a565b612ebc81612e7d565b840191505092915050565b60006020820190508181036000830152612ee18184612e8e565b905092915050565b6000819050919050565b612efc81612ee9565b8114612f0757600080fd5b50565b600081359050612f1981612ef3565b92915050565b600060208284031215612f3557612f34612d69565b5b6000612f4384828501612f0a565b91505092915050565b600073ffffffffffffffffffffffffffffffffffffffff82169050919050565b6000612f7782612f4c565b9050919050565b612f8781612f6c565b82525050565b6000602082019050612fa26000830184612f7e565b92915050565b612fb181612f6c565b8114612fbc57600080fd5b50565b600081359050612fce81612fa8565b92915050565b60008060408385031215612feb57612fea612d69565b5b6000612ff985828601612fbf565b925050602061300a85828601612f0a565b9150509250929050565b61301d81612ee9565b82525050565b60006040820190506130386000830185613014565b6130456020830184613014565b9392505050565b60008060006060848603121561306557613064612d69565b5b600061307386828701612fbf565b935050602061308486828701612fbf565b925050604061309586828701612f0a565b9150509250925092565b600080604083850312156130b6576130b5612d69565b5b60006130c485828601612f0a565b92505060206130d585828601612f0a565b9150509250929050565b60006020820190506130f46000830184613014565b92915050565b600081519050919050565b600082825260208201905092915050565b6000819050602082019050919050565b61312f81612ee9565b82525050565b60006131418383613126565b60208301905092915050565b6000602082019050919050565b6000613165826130fa565b61316f8185613105565b935061317a83613116565b8060005b838110156131ab5781516131928882613135565b975061319d8361314d565b92505060018101905061317e565b5085935050505092915050565b600060208201905081810360008301526131d2818461315a565b905092915050565b6000602082840312156131f0576131ef612d69565b5b60006131fe84828501612fbf565b91505092915050565b600062ffffff82169050919050565b61321f81613207565b811461322a57600080fd5b50565b60008135905061323c81613216565b92915050565b600060ff82169050919050565b61325881613242565b811461326357600080fd5b50565b6000813590506132758161324f565b92915050565b6000806040838503121561329257613291612d69565b5b60006132a08582860161322d565b92505060206132b185828601613266565b9150509250929050565b600080604083850312156132d2576132d1612d69565b5b60006132e085828601613266565b92505060206132f185828601613266565b9150509250929050565b61330481612df8565b811461330f57600080fd5b50565b600081359050613321816132fb565b92915050565b6000806040838503121561333e5761333d612d69565b5b600061334c85828601612fbf565b925050602061335d85828601613312565b9150509250929050565b600080fd5b600080fd5b7f4e487b7100000000000000000000000000000000000000000000000000000000600052604160045260246000fd5b6133a982612e7d565b810181811067ffffffffffffffff821117156133c8576133c7613371565b5b80604052505050565b60006133db612d5f565b90506133e782826133a0565b919050565b600067ffffffffffffffff82111561340757613406613371565b5b61341082612e7d565b9050602081019050919050565b82818337600083830152505050565b600061343f61343a846133ec565b6133d1565b90508281526020810184848401111561345b5761345a61336c565b5b61346684828561341d565b509392505050565b600082601f83011261348357613482613367565b5b813561349384826020860161342c565b91505092915050565b600080600080608085870312156134b6576134b5612d69565b5b60006134c487828801612fbf565b94505060206134d587828801612fbf565b93505060406134e687828801612f0a565b925050606085013567ffffffffffffffff81111561350757613506612d6e565b5b6135138782880161346e565b91505092959194509250565b6000806040838503121561353657613535612d69565b5b600061354485828601612fbf565b925050602061355585828601612fbf565b9150509250929050565b600067ffffffffffffffff82111561357a57613579613371565b5b61358382612e7d565b9050602081019050919050565b60006135a361359e8461355f565b6133d1565b9050828152602081018484840111156135bf576135be61336c565b5b6135ca84828561341d565b509392505050565b600082601f8301126135e7576135e6613367565b5b81356135f7848260208601613590565b91505092915050565b600067ffffffffffffffff82111561361b5761361a613371565b5b602082029050602081019050919050565b600080fd5b600061364461363f84613600565b6133d1565b905080838252602082019050602084028301858111156136675761366661362c565b5b835b81811015613690578061367c8882612f0a565b845260208401935050602081019050613669565b5050509392505050565b600082601f8301126136af576136ae613367565b5b81356136bf848260208601613631565b91505092915050565b600080604083850312156136df576136de612d69565b5b600083013567ffffffffffffffff8111156136fd576136fc612d6e565b5b613709858286016135d2565b925050602083013567ffffffffffffffff81111561372a57613729612d6e565b5b6137368582860161369a565b9150509250929050565b7f4e487b7100000000000000000000000000000000000000000000000000000000600052602260045260246000fd5b6000600282049050600182168061378757607f821691505b6020821081141561379b5761379a613740565b5b50919050565b7f4552433732313a20617070726f76616c20746f2063757272656e74206f776e6560008201527f7200000000000000000000000000000000000000000000000000000000000000602082015250565b60006137fd602183612e39565b9150613808826137a1565b604082019050919050565b6000602082019050818103600083015261382c816137f0565b9050919050565b7f4552433732313a20617070726f76652063616c6c6572206973206e6f7420746f60008201527f6b656e206f776e6572206f7220617070726f76656420666f7220616c6c000000602082015250565b600061388f603d83612e39565b915061389a82613833565b604082019050919050565b600060208201905081810360008301526138be81613882565b9050919050565b7f4552433732313a2063616c6c6572206973206e6f7420746f6b656e206f776e6560008201527f72206f7220617070726f76656400000000000000000000000000000000000000602082015250565b6000613921602d83612e39565b915061392c826138c5565b604082019050919050565b6000602082019050818103600083015261395081613914565b9050919050565b7f4e487b7100000000000000000000000000000000000000000000000000000000600052601160045260246000fd5b600061399182612ee9565b915061399c83612ee9565b9250817fffffffffffffffffffffffffffffffffffffffffffffffffffffffffffffffff04831182151516156139d5576139d4613957565b5b828202905092915050565b7f4e487b7100000000000000000000000000000000000000000000000000000000600052601260045260246000fd5b6000613a1a82612ee9565b9150613a2583612ee9565b925082613a3557613a346139e0565b5b828204905092915050565b6000613a4b82612ee9565b9150613a5683612ee9565b925082821015613a6957613a68613957565b5b828203905092915050565b6000613a7f82613242565b9150613a8a83613242565b925082821015613a9d57613a9c613957565b5b828203905092915050565b7f5f6765745265666572656e636573203a20656e74657220612076616c6964207460008201527f6f6b656e20496400000000000000000000000000000000000000000000000000602082015250565b6000613b04602783612e39565b9150613b0f82613aa8565b604082019050919050565b60006020820190508181036000830152613b3381613af7565b9050919050565b7f546865726520617265206e6f2066756e647320746f20626520636c61696d656460008201527f20746f2074686973207265666572656e63650000000000000000000000000000602082015250565b6000613b96603283612e39565b9150613ba182613b3a565b604082019050919050565b60006020820190508181036000830152613bc581613b89565b9050919050565b6000613bd782612ee9565b9150613be283612ee9565b9250827fffffffffffffffffffffffffffffffffffffffffffffffffffffffffffffffff03821115613c1757613c16613957565b5b828201905092915050565b600081905092915050565b50565b6000613c3d600083613c22565b9150613c4882613c2d565b600082019050919050565b6000613c5e82613c30565b9150819050919050565b7f5472616e73666572206f6620636c61696d657227732066756e6473206661696c60008201527f6564000000000000000000000000000000000000000000000000000000000000602082015250565b6000613cc4602283612e39565b9150613ccf82613c68565b604082019050919050565b60006020820190508181036000830152613cf381613cb7565b9050919050565b7f6f6e6c79206f776e6572206f662074686520746f6b656e2063616e207365742060008201527f6120666f6c6c6f77206d65200000000000000000000000000000000000000000602082015250565b6000613d56602c83612e39565b9150613d6182613cfa565b604082019050919050565b60006020820190508181036000830152613d8581613d49565b9050919050565b7f4552433732313a20696e76616c696420746f6b656e2049440000000000000000600082015250565b6000613dc2601883612e39565b9150613dcd82613d8c565b602082019050919050565b60006020820190508181036000830152613df181613db5565b9050919050565b7f4552433732313a2061646472657373207a65726f206973206e6f74206120766160008201527f6c6964206f776e65720000000000000000000000000000000000000000000000602082015250565b6000613e54602983612e39565b9150613e5f82613df8565b604082019050919050565b60006020820190508181036000830152613e8381613e47565b9050919050565b7f546865726520617265206e6f2066756e647320746f20626520636c61696d656460008201527f20666f7220746865206f776e6572000000000000000000000000000000000000602082015250565b6000613ee6602e83612e39565b9150613ef182613e8a565b604082019050919050565b60006020820190508181036000830152613f1581613ed9565b9050919050565b7f5472616e73666572206f66206f776e657227732066756e6473206661696c6564600082015250565b6000613f52602083612e39565b9150613f5d82613f1c565b602082019050919050565b60006020820190508181036000830152613f8181613f45565b9050919050565b600081905092915050565b6000613f9e82612e2e565b613fa88185613f88565b9350613fb8818560208601612e4a565b80840191505092915050565b6000613fd08285613f93565b9150613fdc8284613f93565b91508190509392505050565b7f546f6b656e20646f6573206e6f742065786973742e0000000000000000000000600082015250565b600061401e601583612e39565b915061402982613fe8565b602082019050919050565b6000602082019050818103600083015261404d81614011565b9050919050565b7f4f776e61626c653a206e6577206f776e657220697320746865207a65726f206160008201527f6464726573730000000000000000000000000000000000000000000000000000602082015250565b60006140b0602683612e39565b91506140bb82614054565b604082019050919050565b600060208201905081810360008301526140df816140a3565b9050919050565b7f4552433732313a207472616e736665722066726f6d20696e636f72726563742060008201527f6f776e6572000000000000000000000000000000000000000000000000000000602082015250565b6000614142602583612e39565b915061414d826140e6565b604082019050919050565b6000602082019050818103600083015261417181614135565b9050919050565b7f4552433732313a207472616e7366657220746f20746865207a65726f2061646460008201527f7265737300000000000000000000000000000000000000000000000000000000602082015250565b60006141d4602483612e39565b91506141df82614178565b604082019050919050565b60006020820190508181036000830152614203816141c7565b9050919050565b7f5265656e7472616e637947756172643a207265656e7472616e742063616c6c00600082015250565b6000614240601f83612e39565b915061424b8261420a565b602082019050919050565b6000602082019050818103600083015261426f81614233565b9050919050565b7f4f776e61626c653a2063616c6c6572206973206e6f7420746865206f776e6572600082015250565b60006142ac602083612e39565b91506142b782614276565b602082019050919050565b600060208201905081810360008301526142db8161429f565b9050919050565b7f4552433732313a20617070726f766520746f2063616c6c657200000000000000600082015250565b6000614318601983612e39565b9150614323826142e2565b602082019050919050565b600060208201905081810360008301526143478161430b565b9050919050565b7f4552433732313a207472616e7366657220746f206e6f6e20455243373231526560008201527f63656976657220696d706c656d656e7465720000000000000000000000000000602082015250565b60006143aa603283612e39565b91506143b58261434e565b604082019050919050565b600060208201905081810360008301526143d98161439d565b9050919050565b7f4552433732313a206d696e7420746f20746865207a65726f2061646472657373600082015250565b6000614416602083612e39565b9150614421826143e0565b602082019050919050565b6000602082019050818103600083015261444581614409565b9050919050565b7f4552433732313a20746f6b656e20616c7265616479206d696e74656400000000600082015250565b6000614482601c83612e39565b915061448d8261444c565b602082019050919050565b600060208201905081810360008301526144b181614475565b9050919050565b7f45524337323155524953746f726167653a2055524920736574206f66206e6f6e60008201527f6578697374656e7420746f6b656e000000000000000000000000000000000000602082015250565b6000614514602e83612e39565b915061451f826144b8565b604082019050919050565b6000602082019050818103600083015261454381614507565b9050919050565b7f4e487b7100000000000000000000000000000000000000000000000000000000600052603260045260246000fd5b7f5f6372656174655265666572656e6365733a20496e76616c696420746f6b656e60008201527f496420696e205265666572656e636520656e7472696573000000000000000000602082015250565b60006145d5603783612e39565b91506145e082614579565b604082019050919050565b60006020820190508181036000830152614604816145c8565b9050919050565b600061461682612ee9565b91507fffffffffffffffffffffffffffffffffffffffffffffffffffffffffffffffff82141561464957614648613957565b5b600182019050919050565b600081519050919050565b600082825260208201905092915050565b600061467b82614654565b614685818561465f565b9350614695818560208601612e4a565b61469e81612e7d565b840191505092915050565b60006080820190506146be6000830187612f7e565b6146cb6020830186612f7e565b6146d86040830185613014565b81810360608301526146ea8184614670565b905095945050505050565b60008151905061470481612d9f565b92915050565b6000602082840312156147205761471f612d69565b5b600061472e848285016146f5565b9150509291505056fea264697066735822122095685411f78036ecc299d330ad78fda7059bc11de09c5f19530f26a9fee0b0e464736f6c634300080a0033",
  "devdoc": {
    "kind": "dev",
    "methods": {
      "approve(address,uint256)": {
        "details": "See {IERC721-approve}."
      },
      "balanceOf(address)": {
        "details": "See {IERC721-balanceOf}."
      },
      "claimToOwner(uint256)": {
        "details": "sender pulls a fee _ and sends claimable value to address of the owner of _tokenId_: callable by any address",
        "params": {
          "tokenId": "id of the token having its donation pulled "
        }
      },
      "claimToRef(uint256,uint256)": {
        "details": "sender pulls a fee _ and sends claimable part of the donation balance to a reference NFT: callable by any address",
        "params": {
          "from": "id of the NFT having its donation balance claimed",
          "to": "id of the reference NFT receiving the donation balance"
        }
      },
      "claimable(uint256,uint256)": {
        "details": "owner of the token that received the donation has a claim to _splitMultiplier / _splitBase _ _references split the remainder: ( _splitBase - _splitMultiplier ) / _splitBase",
        "params": {
          "from": "tokenId that received the donation",
          "to": "tokenId that has a claim over part of the donation received by _from_"
        },
        "returns": {
          "_0": "_ value that _to_ can receive for that particular token (_from_)"
        }
      },
      "donate(uint256)": {
        "details": "receives payment as donation updated _totalDonated[tokenId] if there is a _followMe set for _tokenId_ uses this entry as tokenId "
      },
      "getApproved(uint256)": {
        "details": "See {IERC721-getApproved}."
      },
      "isApprovedForAll(address,address)": {
        "details": "See {IERC721-isApprovedForAll}."
      },
      "name()": {
        "details": "See {IERC721Metadata-name}."
      },
      "owner()": {
        "details": "Returns the address of the current owner."
      },
      "ownerOf(uint256)": {
        "details": "See {IERC721-ownerOf}."
      },
      "renounceOwnership()": {
        "details": "Leaves the contract without owner. It will not be possible to call `onlyOwner` functions anymore. Can only be called by the current owner. NOTE: Renouncing ownership will leave the contract without an owner, thereby removing any functionality that is only available to the owner."
      },
      "safeTransferFrom(address,address,uint256)": {
        "details": "See {IERC721-safeTransferFrom}."
      },
      "safeTransferFrom(address,address,uint256,bytes)": {
        "details": "See {IERC721-safeTransferFrom}."
      },
      "setApprovalForAll(address,bool)": {
        "details": "See {IERC721-setApprovalForAll}."
      },
      "setFollowMe(uint256,uint256)": {
        "details": "updates followMe mapping ",
        "params": {
          "from": "the id of the old NFT",
          "to": "the id of the new updated NFT "
        }
      },
      "supportsInterface(bytes4)": {
        "details": "See {IERC165-supportsInterface}."
      },
      "symbol()": {
        "details": "See {IERC721Metadata-symbol}."
      },
      "tokenURI(uint256)": {
        "details": "See {IERC721Metadata-tokenURI}."
      },
      "transferFrom(address,address,uint256)": {
        "details": "See {IERC721-transferFrom}."
      },
      "transferOwnership(address)": {
        "details": "Transfers ownership of the contract to a new account (`newOwner`). Can only be called by the current owner."
      }
    },
    "stateVariables": {
      "_balanceClaimed": {
        "details": "total value ever claimed to _tokenTo_ from _tokenFrom_'s donations maps _(beneficiary, claimee)_ to _value_ _beneficiary_ is the token claiming part of the donation _claimee_ is the token that received the donation and is having its balance claimed"
      },
      "_followMe": {
        "details": "donations to _from_ are automatically sent to _to_ this mapping allows new tokens to be minted with updated references donations sent to old token are still received by the new one with the right split"
      },
      "_references": {
        "details": "list of references created for _tokenId_ list cannot be updated if references must be changed new token should be minted maps _tokenId_ to _reference list_"
      },
      "_totalClaimed": {
        "details": "total value ever claimed from _tokenId_'s donations maps _tokenId_ to _value_"
      },
      "_totalDonated": {
        "details": "total value ever donated to tokenId maps _tokenId_ to _value_"
      }
    },
    "version": 1
  },
  "userdoc": {
    "kind": "user",
    "methods": {
      "claimable(uint256,uint256)": {
        "notice": "gets the value that can be claimed for a pair (to, from)"
      },
      "constructor": {
        "notice": "fee set at .3% tax set at .1% split set at 2/3 "
      },
      "createToken(string,uint256[])": {
        "notice": "tokens methods"
      },
      "setClaimFee(uint24,uint8)": {
        "notice": "setters"
      },
      "setFollowMe(uint256,uint256)": {
        "notice": "should be used when a onwer wants to update _ the reference list, in which case a new NFT should be minted _ followMe guarantees that any donation sent to the old NFT will be _ sent to the new one and split between the new list of references"
      },
      "tokenTotalDonated(uint256)": {
        "notice": "getters"
      }
    },
    "version": 1
  },
  "storageLayout": {
    "storage": [
      {
        "astId": 192,
        "contract": "contracts/NFT.sol:NFT",
        "label": "_name",
        "offset": 0,
        "slot": "0",
        "type": "t_string_storage"
      },
      {
        "astId": 194,
        "contract": "contracts/NFT.sol:NFT",
        "label": "_symbol",
        "offset": 0,
        "slot": "1",
        "type": "t_string_storage"
      },
      {
        "astId": 198,
        "contract": "contracts/NFT.sol:NFT",
        "label": "_owners",
        "offset": 0,
        "slot": "2",
        "type": "t_mapping(t_uint256,t_address)"
      },
      {
        "astId": 202,
        "contract": "contracts/NFT.sol:NFT",
        "label": "_balances",
        "offset": 0,
        "slot": "3",
        "type": "t_mapping(t_address,t_uint256)"
      },
      {
        "astId": 206,
        "contract": "contracts/NFT.sol:NFT",
        "label": "_tokenApprovals",
        "offset": 0,
        "slot": "4",
        "type": "t_mapping(t_uint256,t_address)"
      },
      {
        "astId": 212,
        "contract": "contracts/NFT.sol:NFT",
        "label": "_operatorApprovals",
        "offset": 0,
        "slot": "5",
        "type": "t_mapping(t_address,t_mapping(t_address,t_bool))"
      },
      {
        "astId": 1240,
        "contract": "contracts/NFT.sol:NFT",
        "label": "_tokenURIs",
        "offset": 0,
        "slot": "6",
        "type": "t_mapping(t_uint256,t_string_storage)"
      },
      {
        "astId": 123,
        "contract": "contracts/NFT.sol:NFT",
        "label": "_status",
        "offset": 0,
        "slot": "7",
        "type": "t_uint256"
      },
      {
        "astId": 7,
        "contract": "contracts/NFT.sol:NFT",
        "label": "_owner",
        "offset": 0,
        "slot": "8",
        "type": "t_address"
      },
      {
        "astId": 3265,
        "contract": "contracts/NFT.sol:NFT",
        "label": "_tokenIds",
        "offset": 0,
        "slot": "9",
        "type": "t_struct(Counter)1737_storage"
      },
      {
        "astId": 3270,
        "contract": "contracts/NFT.sol:NFT",
        "label": "_totalDonated",
        "offset": 0,
        "slot": "10",
        "type": "t_mapping(t_uint256,t_uint256)"
      },
      {
        "astId": 3275,
        "contract": "contracts/NFT.sol:NFT",
        "label": "_totalClaimed",
        "offset": 0,
        "slot": "11",
        "type": "t_mapping(t_uint256,t_uint256)"
      },
      {
        "astId": 3282,
        "contract": "contracts/NFT.sol:NFT",
        "label": "_balanceClaimed",
        "offset": 0,
        "slot": "12",
        "type": "t_mapping(t_uint256,t_mapping(t_uint256,t_uint256))"
      },
      {
        "astId": 3288,
        "contract": "contracts/NFT.sol:NFT",
        "label": "_references",
        "offset": 0,
        "slot": "13",
        "type": "t_mapping(t_uint256,t_array(t_uint256)dyn_storage)"
      },
      {
        "astId": 3293,
        "contract": "contracts/NFT.sol:NFT",
        "label": "_followMe",
        "offset": 0,
        "slot": "14",
        "type": "t_mapping(t_uint256,t_uint256)"
      },
      {
        "astId": 3295,
        "contract": "contracts/NFT.sol:NFT",
        "label": "_treasuryBalance",
        "offset": 0,
        "slot": "15",
        "type": "t_uint256"
      },
      {
        "astId": 3297,
        "contract": "contracts/NFT.sol:NFT",
        "label": "_feeBase",
        "offset": 0,
        "slot": "16",
        "type": "t_uint24"
      },
      {
        "astId": 3299,
        "contract": "contracts/NFT.sol:NFT",
        "label": "_feeMultiplier",
        "offset": 3,
        "slot": "16",
        "type": "t_uint8"
      },
      {
        "astId": 3301,
        "contract": "contracts/NFT.sol:NFT",
        "label": "_taxBase",
        "offset": 4,
        "slot": "16",
        "type": "t_uint24"
      },
      {
        "astId": 3303,
        "contract": "contracts/NFT.sol:NFT",
        "label": "_taxMultiplier",
        "offset": 7,
        "slot": "16",
        "type": "t_uint8"
      },
      {
        "astId": 3305,
        "contract": "contracts/NFT.sol:NFT",
        "label": "_splitBase",
        "offset": 8,
        "slot": "16",
        "type": "t_uint8"
      },
      {
        "astId": 3307,
        "contract": "contracts/NFT.sol:NFT",
        "label": "_splitMultiplier",
        "offset": 9,
        "slot": "16",
        "type": "t_uint8"
      }
    ],
    "types": {
      "t_address": {
        "encoding": "inplace",
        "label": "address",
        "numberOfBytes": "20"
      },
      "t_array(t_uint256)dyn_storage": {
        "base": "t_uint256",
        "encoding": "dynamic_array",
        "label": "uint256[]",
        "numberOfBytes": "32"
      },
      "t_bool": {
        "encoding": "inplace",
        "label": "bool",
        "numberOfBytes": "1"
      },
      "t_mapping(t_address,t_bool)": {
        "encoding": "mapping",
        "key": "t_address",
        "label": "mapping(address => bool)",
        "numberOfBytes": "32",
        "value": "t_bool"
      },
      "t_mapping(t_address,t_mapping(t_address,t_bool))": {
        "encoding": "mapping",
        "key": "t_address",
        "label": "mapping(address => mapping(address => bool))",
        "numberOfBytes": "32",
        "value": "t_mapping(t_address,t_bool)"
      },
      "t_mapping(t_address,t_uint256)": {
        "encoding": "mapping",
        "key": "t_address",
        "label": "mapping(address => uint256)",
        "numberOfBytes": "32",
        "value": "t_uint256"
      },
      "t_mapping(t_uint256,t_address)": {
        "encoding": "mapping",
        "key": "t_uint256",
        "label": "mapping(uint256 => address)",
        "numberOfBytes": "32",
        "value": "t_address"
      },
      "t_mapping(t_uint256,t_array(t_uint256)dyn_storage)": {
        "encoding": "mapping",
        "key": "t_uint256",
        "label": "mapping(uint256 => uint256[])",
        "numberOfBytes": "32",
        "value": "t_array(t_uint256)dyn_storage"
      },
      "t_mapping(t_uint256,t_mapping(t_uint256,t_uint256))": {
        "encoding": "mapping",
        "key": "t_uint256",
        "label": "mapping(uint256 => mapping(uint256 => uint256))",
        "numberOfBytes": "32",
        "value": "t_mapping(t_uint256,t_uint256)"
      },
      "t_mapping(t_uint256,t_string_storage)": {
        "encoding": "mapping",
        "key": "t_uint256",
        "label": "mapping(uint256 => string)",
        "numberOfBytes": "32",
        "value": "t_string_storage"
      },
      "t_mapping(t_uint256,t_uint256)": {
        "encoding": "mapping",
        "key": "t_uint256",
        "label": "mapping(uint256 => uint256)",
        "numberOfBytes": "32",
        "value": "t_uint256"
      },
      "t_string_storage": {
        "encoding": "bytes",
        "label": "string",
        "numberOfBytes": "32"
      },
      "t_struct(Counter)1737_storage": {
        "encoding": "inplace",
        "label": "struct Counters.Counter",
        "members": [
          {
            "astId": 1736,
            "contract": "contracts/NFT.sol:NFT",
            "label": "_value",
            "offset": 0,
            "slot": "0",
            "type": "t_uint256"
          }
        ],
        "numberOfBytes": "32"
      },
      "t_uint24": {
        "encoding": "inplace",
        "label": "uint24",
        "numberOfBytes": "3"
      },
      "t_uint256": {
        "encoding": "inplace",
        "label": "uint256",
        "numberOfBytes": "32"
      },
      "t_uint8": {
        "encoding": "inplace",
        "label": "uint8",
        "numberOfBytes": "1"
      }
    }
  }
}