{
  "address": "0xB9583709FA5B13D30a1A3DBcb0a45D6610113D11",
  "abi": [
    {
      "inputs": [],
      "stateMutability": "nonpayable",
      "type": "constructor"
    },
    {
      "anonymous": false,
      "inputs": [
        {
          "indexed": true,
          "internalType": "address",
          "name": "owner",
          "type": "address"
        },
        {
          "indexed": true,
          "internalType": "address",
          "name": "approved",
          "type": "address"
        },
        {
          "indexed": true,
          "internalType": "uint256",
          "name": "tokenId",
          "type": "uint256"
        }
      ],
      "name": "Approval",
      "type": "event"
    },
    {
      "anonymous": false,
      "inputs": [
        {
          "indexed": true,
          "internalType": "address",
          "name": "owner",
          "type": "address"
        },
        {
          "indexed": true,
          "internalType": "address",
          "name": "operator",
          "type": "address"
        },
        {
          "indexed": false,
          "internalType": "bool",
          "name": "approved",
          "type": "bool"
        }
      ],
      "name": "ApprovalForAll",
      "type": "event"
    },
    {
      "anonymous": false,
      "inputs": [
        {
          "indexed": true,
          "internalType": "address",
          "name": "donor",
          "type": "address"
        },
        {
          "indexed": true,
          "internalType": "uint256",
          "name": "tokenId",
          "type": "uint256"
        },
        {
          "indexed": false,
          "internalType": "uint256",
          "name": "value",
          "type": "uint256"
        }
      ],
      "name": "Donation",
      "type": "event"
    },
    {
      "anonymous": false,
      "inputs": [
        {
          "indexed": true,
          "internalType": "uint256",
          "name": "to",
          "type": "uint256"
        },
        {
          "indexed": true,
          "internalType": "uint256",
          "name": "from",
          "type": "uint256"
        },
        {
          "indexed": false,
          "internalType": "uint256",
          "name": "valueClaimed",
          "type": "uint256"
        }
      ],
      "name": "DonationClaimed",
      "type": "event"
    },
    {
      "anonymous": false,
      "inputs": [
        {
          "indexed": true,
          "internalType": "uint256",
          "name": "from",
          "type": "uint256"
        },
        {
          "indexed": true,
          "internalType": "uint256",
          "name": "to",
          "type": "uint256"
        }
      ],
      "name": "FollowMePut",
      "type": "event"
    },
    {
      "anonymous": false,
      "inputs": [
        {
          "indexed": true,
          "internalType": "address",
          "name": "previousOwner",
          "type": "address"
        },
        {
          "indexed": true,
          "internalType": "address",
          "name": "newOwner",
          "type": "address"
        }
      ],
      "name": "OwnershipTransferred",
      "type": "event"
    },
    {
      "anonymous": false,
      "inputs": [
        {
          "indexed": true,
          "internalType": "address",
          "name": "from",
          "type": "address"
        },
        {
          "indexed": true,
          "internalType": "address",
          "name": "to",
          "type": "address"
        },
        {
          "indexed": true,
          "internalType": "uint256",
          "name": "tokenId",
          "type": "uint256"
        }
      ],
      "name": "Transfer",
      "type": "event"
    },
    {
      "inputs": [
        {
          "internalType": "address",
          "name": "to",
          "type": "address"
        },
        {
          "internalType": "uint256",
          "name": "tokenId",
          "type": "uint256"
        }
      ],
      "name": "approve",
      "outputs": [],
      "stateMutability": "nonpayable",
      "type": "function"
    },
    {
      "inputs": [
        {
          "internalType": "address",
          "name": "owner",
          "type": "address"
        }
      ],
      "name": "balanceOf",
      "outputs": [
        {
          "internalType": "uint256",
          "name": "",
          "type": "uint256"
        }
      ],
      "stateMutability": "view",
      "type": "function"
    },
    {
      "inputs": [
        {
          "internalType": "uint256",
          "name": "tokenId",
          "type": "uint256"
        }
      ],
      "name": "claimToOwner",
      "outputs": [],
      "stateMutability": "nonpayable",
      "type": "function"
    },
    {
      "inputs": [
        {
          "internalType": "uint256",
          "name": "to",
          "type": "uint256"
        },
        {
          "internalType": "uint256",
          "name": "from",
          "type": "uint256"
        }
      ],
      "name": "claimToRef",
      "outputs": [],
      "stateMutability": "nonpayable",
      "type": "function"
    },
    {
      "inputs": [
        {
          "internalType": "uint256",
          "name": "to",
          "type": "uint256"
        },
        {
          "internalType": "uint256",
          "name": "from",
          "type": "uint256"
        }
      ],
      "name": "claimable",
      "outputs": [
        {
          "internalType": "uint256",
          "name": "",
          "type": "uint256"
        }
      ],
      "stateMutability": "view",
      "type": "function"
    },
    {
      "inputs": [
        {
          "internalType": "string",
          "name": "tokenURI",
          "type": "string"
        },
        {
          "internalType": "uint256[]",
          "name": "refs",
          "type": "uint256[]"
        }
      ],
      "name": "createToken",
      "outputs": [
        {
          "internalType": "uint256",
          "name": "",
          "type": "uint256"
        }
      ],
      "stateMutability": "nonpayable",
      "type": "function"
    },
    {
      "inputs": [
        {
          "internalType": "uint256",
          "name": "tokenId",
          "type": "uint256"
        }
      ],
      "name": "donate",
      "outputs": [],
      "stateMutability": "payable",
      "type": "function"
    },
    {
      "inputs": [
        {
          "internalType": "uint256",
          "name": "tokenId",
          "type": "uint256"
        }
      ],
      "name": "getApproved",
      "outputs": [
        {
          "internalType": "address",
          "name": "",
          "type": "address"
        }
      ],
      "stateMutability": "view",
      "type": "function"
    },
    {
      "inputs": [
        {
          "internalType": "uint256",
          "name": "tokenId",
          "type": "uint256"
        }
      ],
      "name": "getReferences",
      "outputs": [
        {
          "internalType": "uint256[]",
          "name": "",
          "type": "uint256[]"
        }
      ],
      "stateMutability": "view",
      "type": "function"
    },
    {
      "inputs": [],
      "name": "getTreasuryBalance",
      "outputs": [
        {
          "internalType": "uint256",
          "name": "",
          "type": "uint256"
        }
      ],
      "stateMutability": "view",
      "type": "function"
    },
    {
      "inputs": [
        {
          "internalType": "address",
          "name": "owner",
          "type": "address"
        },
        {
          "internalType": "address",
          "name": "operator",
          "type": "address"
        }
      ],
      "name": "isApprovedForAll",
      "outputs": [
        {
          "internalType": "bool",
          "name": "",
          "type": "bool"
        }
      ],
      "stateMutability": "view",
      "type": "function"
    },
    {
      "inputs": [],
      "name": "name",
      "outputs": [
        {
          "internalType": "string",
          "name": "",
          "type": "string"
        }
      ],
      "stateMutability": "view",
      "type": "function"
    },
    {
      "inputs": [],
      "name": "numberOfTokens",
      "outputs": [
        {
          "internalType": "uint256",
          "name": "",
          "type": "uint256"
        }
      ],
      "stateMutability": "view",
      "type": "function"
    },
    {
      "inputs": [],
      "name": "owner",
      "outputs": [
        {
          "internalType": "address",
          "name": "",
          "type": "address"
        }
      ],
      "stateMutability": "view",
      "type": "function"
    },
    {
      "inputs": [
        {
          "internalType": "uint256",
          "name": "tokenId",
          "type": "uint256"
        }
      ],
      "name": "ownerOf",
      "outputs": [
        {
          "internalType": "address",
          "name": "",
          "type": "address"
        }
      ],
      "stateMutability": "view",
      "type": "function"
    },
    {
      "inputs": [],
      "name": "renounceOwnership",
      "outputs": [],
      "stateMutability": "nonpayable",
      "type": "function"
    },
    {
      "inputs": [
        {
          "internalType": "address",
          "name": "from",
          "type": "address"
        },
        {
          "internalType": "address",
          "name": "to",
          "type": "address"
        },
        {
          "internalType": "uint256",
          "name": "tokenId",
          "type": "uint256"
        }
      ],
      "name": "safeTransferFrom",
      "outputs": [],
      "stateMutability": "nonpayable",
      "type": "function"
    },
    {
      "inputs": [
        {
          "internalType": "address",
          "name": "from",
          "type": "address"
        },
        {
          "internalType": "address",
          "name": "to",
          "type": "address"
        },
        {
          "internalType": "uint256",
          "name": "tokenId",
          "type": "uint256"
        },
        {
          "internalType": "bytes",
          "name": "data",
          "type": "bytes"
        }
      ],
      "name": "safeTransferFrom",
      "outputs": [],
      "stateMutability": "nonpayable",
      "type": "function"
    },
    {
      "inputs": [
        {
          "internalType": "address",
          "name": "operator",
          "type": "address"
        },
        {
          "internalType": "bool",
          "name": "approved",
          "type": "bool"
        }
      ],
      "name": "setApprovalForAll",
      "outputs": [],
      "stateMutability": "nonpayable",
      "type": "function"
    },
    {
      "inputs": [
        {
          "internalType": "uint256",
          "name": "from",
          "type": "uint256"
        },
        {
          "internalType": "uint256",
          "name": "to",
          "type": "uint256"
        }
      ],
      "name": "setFollowMe",
      "outputs": [],
      "stateMutability": "nonpayable",
      "type": "function"
    },
    {
      "inputs": [
        {
          "internalType": "bytes4",
          "name": "interfaceId",
          "type": "bytes4"
        }
      ],
      "name": "supportsInterface",
      "outputs": [
        {
          "internalType": "bool",
          "name": "",
          "type": "bool"
        }
      ],
      "stateMutability": "view",
      "type": "function"
    },
    {
      "inputs": [],
      "name": "symbol",
      "outputs": [
        {
          "internalType": "string",
          "name": "",
          "type": "string"
        }
      ],
      "stateMutability": "view",
      "type": "function"
    },
    {
      "inputs": [
        {
          "internalType": "uint256",
          "name": "tokenId",
          "type": "uint256"
        }
      ],
      "name": "tokenDonationBalance",
      "outputs": [
        {
          "internalType": "uint256",
          "name": "",
          "type": "uint256"
        }
      ],
      "stateMutability": "view",
      "type": "function"
    },
    {
      "inputs": [
        {
          "internalType": "uint256",
          "name": "tokenId",
          "type": "uint256"
        }
      ],
      "name": "tokenTotalDonated",
      "outputs": [
        {
          "internalType": "uint256",
          "name": "",
          "type": "uint256"
        }
      ],
      "stateMutability": "view",
      "type": "function"
    },
    {
      "inputs": [
        {
          "internalType": "uint256",
          "name": "tokenId",
          "type": "uint256"
        }
      ],
      "name": "tokenURI",
      "outputs": [
        {
          "internalType": "string",
          "name": "",
          "type": "string"
        }
      ],
      "stateMutability": "view",
      "type": "function"
    },
    {
      "inputs": [
        {
          "internalType": "address",
          "name": "from",
          "type": "address"
        },
        {
          "internalType": "address",
          "name": "to",
          "type": "address"
        },
        {
          "internalType": "uint256",
          "name": "tokenId",
          "type": "uint256"
        }
      ],
      "name": "transferFrom",
      "outputs": [],
      "stateMutability": "nonpayable",
      "type": "function"
    },
    {
      "inputs": [
        {
          "internalType": "address",
          "name": "newOwner",
          "type": "address"
        }
      ],
      "name": "transferOwnership",
      "outputs": [],
      "stateMutability": "nonpayable",
      "type": "function"
    }
  ],
  "transactionHash": "0xfc850df57b268878b71a769ef5cc15914a983ac98b8b10d32878263709a91a4a",
  "args": [],
  "numDeployments": 5,
  "solcInputHash": "30735ea5db7cb15daa4ef3685d684146",
  "bytecode": "0x60806040523480156200001157600080fd5b506040518060400160405280600881526020017f53636947726170680000000000000000000000000000000000000000000000008152506040518060400160405280600481526020017f5343475000000000000000000000000000000000000000000000000000000000815250816000908051906020019062000096929190620001ae565b508060019080519060200190620000af929190620001ae565b5050506001600781905550620000da620000ce620000e060201b60201c565b620000e860201b60201c565b620002c3565b600033905090565b6000600860009054906101000a900473ffffffffffffffffffffffffffffffffffffffff16905081600860006101000a81548173ffffffffffffffffffffffffffffffffffffffff021916908373ffffffffffffffffffffffffffffffffffffffff1602179055508173ffffffffffffffffffffffffffffffffffffffff168173ffffffffffffffffffffffffffffffffffffffff167f8be0079c531659141344cd1fd0a4f28419497f9722a3daafe3b4186f6b6457e060405160405180910390a35050565b828054620001bc906200028d565b90600052602060002090601f016020900481019282620001e057600085556200022c565b82601f10620001fb57805160ff19168380011785556200022c565b828001600101855582156200022c579182015b828111156200022b5782518255916020019190600101906200020e565b5b5090506200023b91906200023f565b5090565b5b808211156200025a57600081600090555060010162000240565b5090565b7f4e487b7100000000000000000000000000000000000000000000000000000000600052602260045260246000fd5b60006002820490506001821680620002a657607f821691505b60208210811415620002bd57620002bc6200025e565b5b50919050565b61435e80620002d36000396000f3fe60806040526004361061019c5760003560e01c80638da5cb5b116100ec578063c87b56dd1161008a578063f14faf6f11610064578063f14faf6f1461060e578063f2fde38b1461062a578063f3a99c0814610653578063f9f16ef2146106905761019c565b8063c87b56dd14610557578063e985e9c514610594578063eaf684cf146105d15761019c565b80639d5f08f1116100c65780639d5f08f11461049f578063a22cb465146104dc578063af51694b14610505578063b88d4fde1461052e5761019c565b80638da5cb5b1461041e57806395d89b41146104495780639b5655dc146104745761019c565b80633cfc7ae2116101595780635e287945116101335780635e287945146103645780636352211e1461038d57806370a08231146103ca578063715018a6146104075761019c565b80633cfc7ae2146102d5578063413669f01461031257806342842e0e1461033b5761019c565b806301ffc9a7146101a157806306fdde03146101de578063081812fc14610209578063095ea7b31461024657806323b872dd1461026f5780632640fc3e14610298575b600080fd5b3480156101ad57600080fd5b506101c860048036038101906101c39190612b0d565b6106bb565b6040516101d59190612b55565b60405180910390f35b3480156101ea57600080fd5b506101f361079d565b6040516102009190612c09565b60405180910390f35b34801561021557600080fd5b50610230600480360381019061022b9190612c61565b61082f565b60405161023d9190612ccf565b60405180910390f35b34801561025257600080fd5b5061026d60048036038101906102689190612d16565b610875565b005b34801561027b57600080fd5b5061029660048036038101906102919190612d56565b61098d565b005b3480156102a457600080fd5b506102bf60048036038101906102ba9190612da9565b6109ed565b6040516102cc9190612df8565b60405180910390f35b3480156102e157600080fd5b506102fc60048036038101906102f79190612c61565b610b11565b6040516103099190612ed1565b60405180910390f35b34801561031e57600080fd5b5061033960048036038101906103349190612da9565b610bd4565b005b34801561034757600080fd5b50610362600480360381019061035d9190612d56565b610dcc565b005b34801561037057600080fd5b5061038b60048036038101906103869190612da9565b610dec565b005b34801561039957600080fd5b506103b460048036038101906103af9190612c61565b610e7e565b6040516103c19190612ccf565b60405180910390f35b3480156103d657600080fd5b506103f160048036038101906103ec9190612ef3565b610f05565b6040516103fe9190612df8565b60405180910390f35b34801561041357600080fd5b5061041c610fbd565b005b34801561042a57600080fd5b50610433610fd1565b6040516104409190612ccf565b60405180910390f35b34801561045557600080fd5b5061045e610ffb565b60405161046b9190612c09565b60405180910390f35b34801561048057600080fd5b5061048961108d565b6040516104969190612df8565b60405180910390f35b3480156104ab57600080fd5b506104c660048036038101906104c19190612c61565b611097565b6040516104d39190612df8565b60405180910390f35b3480156104e857600080fd5b5061050360048036038101906104fe9190612f4c565b6110d2565b005b34801561051157600080fd5b5061052c60048036038101906105279190612c61565b6110e8565b005b34801561053a57600080fd5b50610555600480360381019061055091906130c1565b611370565b005b34801561056357600080fd5b5061057e60048036038101906105799190612c61565b6113d2565b60405161058b9190612c09565b60405180910390f35b3480156105a057600080fd5b506105bb60048036038101906105b69190613144565b6114e5565b6040516105c89190612b55565b60405180910390f35b3480156105dd57600080fd5b506105f860048036038101906105f391906132ed565b611579565b6040516106059190612df8565b60405180910390f35b61062860048036038101906106239190612c61565b6115ba565b005b34801561063657600080fd5b50610651600480360381019061064c9190612ef3565b611717565b005b34801561065f57600080fd5b5061067a60048036038101906106759190612c61565b61179b565b6040516106879190612df8565b60405180910390f35b34801561069c57600080fd5b506106a56117b8565b6040516106b29190612df8565b60405180910390f35b60007f80ac58cd000000000000000000000000000000000000000000000000000000007bffffffffffffffffffffffffffffffffffffffffffffffffffffffff1916827bffffffffffffffffffffffffffffffffffffffffffffffffffffffff1916148061078657507f5b5e139f000000000000000000000000000000000000000000000000000000007bffffffffffffffffffffffffffffffffffffffffffffffffffffffff1916827bffffffffffffffffffffffffffffffffffffffffffffffffffffffff1916145b806107965750610795826117c9565b5b9050919050565b6060600080546107ac90613394565b80601f01602080910402602001604051908101604052809291908181526020018280546107d890613394565b80156108255780601f106107fa57610100808354040283529160200191610825565b820191906000526020600020905b81548152906001019060200180831161080857829003601f168201915b5050505050905090565b600061083a82611833565b6004600083815260200190815260200160002060009054906101000a900473ffffffffffffffffffffffffffffffffffffffff169050919050565b600061088082610e7e565b90508073ffffffffffffffffffffffffffffffffffffffff168373ffffffffffffffffffffffffffffffffffffffff1614156108f1576040517f08c379a00000000000000000000000000000000000000000000000000000000081526004016108e890613438565b60405180910390fd5b8073ffffffffffffffffffffffffffffffffffffffff1661091061187e565b73ffffffffffffffffffffffffffffffffffffffff16148061093f575061093e8161093961187e565b6114e5565b5b61097e576040517f08c379a0000000000000000000000000000000000000000000000000000000008152600401610975906134ca565b60405180910390fd5b6109888383611886565b505050565b61099e61099861187e565b8261193f565b6109dd576040517f08c379a00000000000000000000000000000000000000000000000000000000081526004016109d49061355c565b60405180910390fd5b6109e88383836119d4565b505050565b600080600d6000848152602001908152602001600020805490501115610aee5781831415610a7757600c600084815260200190815260200160002060008481526020019081526020016000205460036002600a600087815260200190815260200160002054610a5c91906135ab565b610a669190613634565b610a709190613665565b9050610b0b565b600c6000848152602001908152602001600020600083815260200190815260200160002054600d6000848152602001908152602001600020805490506003600a600086815260200190815260200160002054610ad39190613634565b610add9190613634565b610ae79190613665565b9050610b0b565b81831415610b0657610aff82611097565b9050610b0b565b600090505b92915050565b606060008210158015610b2c5750610b296009611cce565b82105b610b6b576040517f08c379a0000000000000000000000000000000000000000000000000000000008152600401610b629061370b565b60405180910390fd5b600d6000838152602001908152602001600020805480602002602001604051908101604052809291908181526020018280548015610bc857602002820191906000526020600020905b815481526020019060010190808311610bb4575b50505050509050919050565b610bdc611cdc565b6000610be883836109ed565b905060008111610c2d576040517f08c379a0000000000000000000000000000000000000000000000000000000008152600401610c249061379d565b60405180910390fd5b6000606482610c3c9190613634565b905082847fa7116c38c2fc13dbd2d57ce586bb24784466a4b1f54b8f2676b220044a26f55d84604051610c6f9190612df8565b60405180910390a381600b60008581526020019081526020016000206000828254610c9a91906137bd565b9250508190555081600c600086815260200190815260200160002060008581526020019081526020016000206000828254610cd591906137bd565b925050819055508082610ce89190613665565b600a60008681526020019081526020016000206000828254610d0a91906137bd565b9250508190555060003373ffffffffffffffffffffffffffffffffffffffff1682604051610d3790613844565b60006040518083038185875af1925050503d8060008114610d74576040519150601f19603f3d011682016040523d82523d6000602084013e610d79565b606091505b5050905080610dbd576040517f08c379a0000000000000000000000000000000000000000000000000000000008152600401610db4906138cb565b60405180910390fd5b505050610dc8611d2c565b5050565b610de783838360405180602001604052806000815250611370565b505050565b610df582611d36565b73ffffffffffffffffffffffffffffffffffffffff163373ffffffffffffffffffffffffffffffffffffffff1614610e62576040517f08c379a0000000000000000000000000000000000000000000000000000000008152600401610e599061395d565b60405180910390fd5b80600e6000848152602001908152602001600020819055505050565b600080610e8a83611d36565b9050600073ffffffffffffffffffffffffffffffffffffffff168173ffffffffffffffffffffffffffffffffffffffff161415610efc576040517f08c379a0000000000000000000000000000000000000000000000000000000008152600401610ef3906139c9565b60405180910390fd5b80915050919050565b60008073ffffffffffffffffffffffffffffffffffffffff168273ffffffffffffffffffffffffffffffffffffffff161415610f76576040517f08c379a0000000000000000000000000000000000000000000000000000000008152600401610f6d90613a5b565b60405180910390fd5b600360008373ffffffffffffffffffffffffffffffffffffffff1673ffffffffffffffffffffffffffffffffffffffff168152602001908152602001600020549050919050565b610fc5611d73565b610fcf6000611df1565b565b6000600860009054906101000a900473ffffffffffffffffffffffffffffffffffffffff16905090565b60606001805461100a90613394565b80601f016020809104026020016040519081016040528092919081815260200182805461103690613394565b80156110835780601f1061105857610100808354040283529160200191611083565b820191906000526020600020905b81548152906001019060200180831161106657829003601f168201915b5050505050905090565b6000600f54905090565b6000600b600083815260200190815260200160002054600a6000848152602001908152602001600020546110cb9190613665565b9050919050565b6110e46110dd61187e565b8383611eb7565b5050565b6110f0611cdc565b60006110fc82836109ed565b905060008111611141576040517f08c379a000000000000000000000000000000000000000000000000000000000815260040161113890613aed565b60405180910390fd5b60006064826111509190613634565b905082837fa7116c38c2fc13dbd2d57ce586bb24784466a4b1f54b8f2676b220044a26f55d846040516111839190612df8565b60405180910390a381600b600085815260200190815260200160002060008282546111ae91906137bd565b9250508190555081600c6000858152602001908152602001600020600085815260200190815260200160002060008282546111e991906137bd565b9250508190555060006111fb84610e7e565b905060008173ffffffffffffffffffffffffffffffffffffffff1683856112229190613665565b60405161122e90613844565b60006040518083038185875af1925050503d806000811461126b576040519150601f19603f3d011682016040523d82523d6000602084013e611270565b606091505b50509050806112b4576040517f08c379a00000000000000000000000000000000000000000000000000000000081526004016112ab90613b59565b60405180910390fd5b60003373ffffffffffffffffffffffffffffffffffffffff16846040516112da90613844565b60006040518083038185875af1925050503d8060008114611317576040519150601f19603f3d011682016040523d82523d6000602084013e61131c565b606091505b5050905080611360576040517f08c379a0000000000000000000000000000000000000000000000000000000008152600401611357906138cb565b60405180910390fd5b505050505061136d611d2c565b50565b61138161137b61187e565b8361193f565b6113c0576040517f08c379a00000000000000000000000000000000000000000000000000000000081526004016113b79061355c565b60405180910390fd5b6113cc84848484612024565b50505050565b60606113dd82611833565b60006006600084815260200190815260200160002080546113fd90613394565b80601f016020809104026020016040519081016040528092919081815260200182805461142990613394565b80156114765780601f1061144b57610100808354040283529160200191611476565b820191906000526020600020905b81548152906001019060200180831161145957829003601f168201915b505050505090506000611487612080565b905060008151141561149d5781925050506114e0565b6000825111156114d25780826040516020016114ba929190613bb5565b604051602081830303815290604052925050506114e0565b6114db84612097565b925050505b919050565b6000600560008473ffffffffffffffffffffffffffffffffffffffff1673ffffffffffffffffffffffffffffffffffffffff16815260200190815260200160002060008373ffffffffffffffffffffffffffffffffffffffff1673ffffffffffffffffffffffffffffffffffffffff16815260200190815260200160002060009054906101000a900460ff16905092915050565b6000806115866009611cce565b905061159260096120ff565b61159c3382612115565b6115a68185612333565b6115b081846123a7565b8091505092915050565b6115c2611cdc565b6115cc6009611cce565b811061160d576040517f08c379a000000000000000000000000000000000000000000000000000000000815260040161160490613c25565b60405180910390fd5b600060643461161c9190613634565b90506000600e6000848152602001908152602001600020541461165057600e60008381526020019081526020016000205491505b611681813461165f9190613665565b600a60008581526020019081526020016000205461245890919063ffffffff16565b600a600084815260200190815260200160002081905550813373ffffffffffffffffffffffffffffffffffffffff167f106aac375bbcf013d1e52338bbf9e740009a1a3a6869f8daa1b72aa1620f5fec83346116dd9190613665565b6040516116ea9190612df8565b60405180910390a380600f600082825461170491906137bd565b9250508190555050611714611d2c565b50565b61171f611d73565b600073ffffffffffffffffffffffffffffffffffffffff168173ffffffffffffffffffffffffffffffffffffffff16141561178f576040517f08c379a000000000000000000000000000000000000000000000000000000000815260040161178690613cb7565b60405180910390fd5b61179881611df1565b50565b6000600a6000838152602001908152602001600020549050919050565b60006117c46009611cce565b905090565b60007f01ffc9a7000000000000000000000000000000000000000000000000000000007bffffffffffffffffffffffffffffffffffffffffffffffffffffffff1916827bffffffffffffffffffffffffffffffffffffffffffffffffffffffff1916149050919050565b61183c8161246e565b61187b576040517f08c379a0000000000000000000000000000000000000000000000000000000008152600401611872906139c9565b60405180910390fd5b50565b600033905090565b816004600083815260200190815260200160002060006101000a81548173ffffffffffffffffffffffffffffffffffffffff021916908373ffffffffffffffffffffffffffffffffffffffff160217905550808273ffffffffffffffffffffffffffffffffffffffff166118f983610e7e565b73ffffffffffffffffffffffffffffffffffffffff167f8c5be1e5ebec7d5bd14f71427d1e84f3dd0314c0f7b2291e5b200ac8c7c3b92560405160405180910390a45050565b60008061194b83610e7e565b90508073ffffffffffffffffffffffffffffffffffffffff168473ffffffffffffffffffffffffffffffffffffffff16148061198d575061198c81856114e5565b5b806119cb57508373ffffffffffffffffffffffffffffffffffffffff166119b38461082f565b73ffffffffffffffffffffffffffffffffffffffff16145b91505092915050565b8273ffffffffffffffffffffffffffffffffffffffff166119f482610e7e565b73ffffffffffffffffffffffffffffffffffffffff1614611a4a576040517f08c379a0000000000000000000000000000000000000000000000000000000008152600401611a4190613d49565b60405180910390fd5b600073ffffffffffffffffffffffffffffffffffffffff168273ffffffffffffffffffffffffffffffffffffffff161415611aba576040517f08c379a0000000000000000000000000000000000000000000000000000000008152600401611ab190613ddb565b60405180910390fd5b611ac783838360016124af565b8273ffffffffffffffffffffffffffffffffffffffff16611ae782610e7e565b73ffffffffffffffffffffffffffffffffffffffff1614611b3d576040517f08c379a0000000000000000000000000000000000000000000000000000000008152600401611b3490613d49565b60405180910390fd5b6004600082815260200190815260200160002060006101000a81549073ffffffffffffffffffffffffffffffffffffffff02191690556001600360008573ffffffffffffffffffffffffffffffffffffffff1673ffffffffffffffffffffffffffffffffffffffff168152602001908152602001600020600082825403925050819055506001600360008473ffffffffffffffffffffffffffffffffffffffff1673ffffffffffffffffffffffffffffffffffffffff16815260200190815260200160002060008282540192505081905550816002600083815260200190815260200160002060006101000a81548173ffffffffffffffffffffffffffffffffffffffff021916908373ffffffffffffffffffffffffffffffffffffffff160217905550808273ffffffffffffffffffffffffffffffffffffffff168473ffffffffffffffffffffffffffffffffffffffff167fddf252ad1be2c89b69c2b068fc378daa952ba7f163c4a11628f55a4df523b3ef60405160405180910390a4611cc983838360016125d5565b505050565b600081600001549050919050565b60026007541415611d22576040517f08c379a0000000000000000000000000000000000000000000000000000000008152600401611d1990613e47565b60405180910390fd5b6002600781905550565b6001600781905550565b60006002600083815260200190815260200160002060009054906101000a900473ffffffffffffffffffffffffffffffffffffffff169050919050565b611d7b61187e565b73ffffffffffffffffffffffffffffffffffffffff16611d99610fd1565b73ffffffffffffffffffffffffffffffffffffffff1614611def576040517f08c379a0000000000000000000000000000000000000000000000000000000008152600401611de690613eb3565b60405180910390fd5b565b6000600860009054906101000a900473ffffffffffffffffffffffffffffffffffffffff16905081600860006101000a81548173ffffffffffffffffffffffffffffffffffffffff021916908373ffffffffffffffffffffffffffffffffffffffff1602179055508173ffffffffffffffffffffffffffffffffffffffff168173ffffffffffffffffffffffffffffffffffffffff167f8be0079c531659141344cd1fd0a4f28419497f9722a3daafe3b4186f6b6457e060405160405180910390a35050565b8173ffffffffffffffffffffffffffffffffffffffff168373ffffffffffffffffffffffffffffffffffffffff161415611f26576040517f08c379a0000000000000000000000000000000000000000000000000000000008152600401611f1d90613f1f565b60405180910390fd5b80600560008573ffffffffffffffffffffffffffffffffffffffff1673ffffffffffffffffffffffffffffffffffffffff16815260200190815260200160002060008473ffffffffffffffffffffffffffffffffffffffff1673ffffffffffffffffffffffffffffffffffffffff16815260200190815260200160002060006101000a81548160ff0219169083151502179055508173ffffffffffffffffffffffffffffffffffffffff168373ffffffffffffffffffffffffffffffffffffffff167f17307eab39ab6107e8899845ad3d59bd9653f200f220920489ca2b5937696c31836040516120179190612b55565b60405180910390a3505050565b61202f8484846119d4565b61203b848484846125db565b61207a576040517f08c379a000000000000000000000000000000000000000000000000000000000815260040161207190613fb1565b60405180910390fd5b50505050565b606060405180602001604052806000815250905090565b60606120a282611833565b60006120ac612080565b905060008151116120cc57604051806020016040528060008152506120f7565b806120d684612763565b6040516020016120e7929190613bb5565b6040516020818303038152906040525b915050919050565b6001816000016000828254019250508190555050565b600073ffffffffffffffffffffffffffffffffffffffff168273ffffffffffffffffffffffffffffffffffffffff161415612185576040517f08c379a000000000000000000000000000000000000000000000000000000000815260040161217c9061401d565b60405180910390fd5b61218e8161246e565b156121ce576040517f08c379a00000000000000000000000000000000000000000000000000000000081526004016121c590614089565b60405180910390fd5b6121dc6000838360016124af565b6121e58161246e565b15612225576040517f08c379a000000000000000000000000000000000000000000000000000000000815260040161221c90614089565b60405180910390fd5b6001600360008473ffffffffffffffffffffffffffffffffffffffff1673ffffffffffffffffffffffffffffffffffffffff16815260200190815260200160002060008282540192505081905550816002600083815260200190815260200160002060006101000a81548173ffffffffffffffffffffffffffffffffffffffff021916908373ffffffffffffffffffffffffffffffffffffffff160217905550808273ffffffffffffffffffffffffffffffffffffffff16600073ffffffffffffffffffffffffffffffffffffffff167fddf252ad1be2c89b69c2b068fc378daa952ba7f163c4a11628f55a4df523b3ef60405160405180910390a461232f6000838360016125d5565b5050565b61233c8261246e565b61237b576040517f08c379a00000000000000000000000000000000000000000000000000000000081526004016123729061411b565b60405180910390fd5b806006600084815260200190815260200160002090805190602001906123a29291906129b1565b505050565b60005b815181101561242b576123bd6009611cce565b8282815181106123d0576123cf61413b565b5b602002602001015110612418576040517f08c379a000000000000000000000000000000000000000000000000000000000815260040161240f906141dc565b60405180910390fd5b8080612423906141fc565b9150506123aa565b81600d60008581526020019081526020016000209080519060200190612452929190612a37565b50505050565b6000818361246691906137bd565b905092915050565b60008073ffffffffffffffffffffffffffffffffffffffff1661249083611d36565b73ffffffffffffffffffffffffffffffffffffffff1614159050919050565b60018111156125cf57600073ffffffffffffffffffffffffffffffffffffffff168473ffffffffffffffffffffffffffffffffffffffff16146125435780600360008673ffffffffffffffffffffffffffffffffffffffff1673ffffffffffffffffffffffffffffffffffffffff168152602001908152602001600020600082825461253b9190613665565b925050819055505b600073ffffffffffffffffffffffffffffffffffffffff168373ffffffffffffffffffffffffffffffffffffffff16146125ce5780600360008573ffffffffffffffffffffffffffffffffffffffff1673ffffffffffffffffffffffffffffffffffffffff16815260200190815260200160002060008282546125c691906137bd565b925050819055505b5b50505050565b50505050565b60006125fc8473ffffffffffffffffffffffffffffffffffffffff1661283b565b15612756578373ffffffffffffffffffffffffffffffffffffffff1663150b7a0261262561187e565b8786866040518563ffffffff1660e01b8152600401612647949392919061429a565b6020604051808303816000875af192505050801561268357506040513d601f19601f8201168201806040525081019061268091906142fb565b60015b612706573d80600081146126b3576040519150601f19603f3d011682016040523d82523d6000602084013e6126b8565b606091505b506000815114156126fe576040517f08c379a00000000000000000000000000000000000000000000000000000000081526004016126f590613fb1565b60405180910390fd5b805181602001fd5b63150b7a0260e01b7bffffffffffffffffffffffffffffffffffffffffffffffffffffffff1916817bffffffffffffffffffffffffffffffffffffffffffffffffffffffff19161491505061275b565b600190505b949350505050565b6060600060016127728461285e565b01905060008167ffffffffffffffff81111561279157612790612f96565b5b6040519080825280601f01601f1916602001820160405280156127c35781602001600182028036833780820191505090505b509050600082602001820190505b600115612830578080600190039150507f3031323334353637383961626364656600000000000000000000000000000000600a86061a8153600a858161281a57612819613605565b5b049450600085141561282b57612830565b6127d1565b819350505050919050565b6000808273ffffffffffffffffffffffffffffffffffffffff163b119050919050565b600080600090507a184f03e93ff9f4daa797ed6e38ed64bf6a1f01000000000000000083106128bc577a184f03e93ff9f4daa797ed6e38ed64bf6a1f01000000000000000083816128b2576128b1613605565b5b0492506040810190505b6d04ee2d6d415b85acef810000000083106128f9576d04ee2d6d415b85acef810000000083816128ef576128ee613605565b5b0492506020810190505b662386f26fc10000831061292857662386f26fc10000838161291e5761291d613605565b5b0492506010810190505b6305f5e1008310612951576305f5e100838161294757612946613605565b5b0492506008810190505b612710831061297657612710838161296c5761296b613605565b5b0492506004810190505b60648310612999576064838161298f5761298e613605565b5b0492506002810190505b600a83106129a8576001810190505b80915050919050565b8280546129bd90613394565b90600052602060002090601f0160209004810192826129df5760008555612a26565b82601f106129f857805160ff1916838001178555612a26565b82800160010185558215612a26579182015b82811115612a25578251825591602001919060010190612a0a565b5b509050612a339190612a84565b5090565b828054828255906000526020600020908101928215612a73579160200282015b82811115612a72578251825591602001919060010190612a57565b5b509050612a809190612a84565b5090565b5b80821115612a9d576000816000905550600101612a85565b5090565b6000604051905090565b600080fd5b600080fd5b60007fffffffff0000000000000000000000000000000000000000000000000000000082169050919050565b612aea81612ab5565b8114612af557600080fd5b50565b600081359050612b0781612ae1565b92915050565b600060208284031215612b2357612b22612aab565b5b6000612b3184828501612af8565b91505092915050565b60008115159050919050565b612b4f81612b3a565b82525050565b6000602082019050612b6a6000830184612b46565b92915050565b600081519050919050565b600082825260208201905092915050565b60005b83811015612baa578082015181840152602081019050612b8f565b83811115612bb9576000848401525b50505050565b6000601f19601f8301169050919050565b6000612bdb82612b70565b612be58185612b7b565b9350612bf5818560208601612b8c565b612bfe81612bbf565b840191505092915050565b60006020820190508181036000830152612c238184612bd0565b905092915050565b6000819050919050565b612c3e81612c2b565b8114612c4957600080fd5b50565b600081359050612c5b81612c35565b92915050565b600060208284031215612c7757612c76612aab565b5b6000612c8584828501612c4c565b91505092915050565b600073ffffffffffffffffffffffffffffffffffffffff82169050919050565b6000612cb982612c8e565b9050919050565b612cc981612cae565b82525050565b6000602082019050612ce46000830184612cc0565b92915050565b612cf381612cae565b8114612cfe57600080fd5b50565b600081359050612d1081612cea565b92915050565b60008060408385031215612d2d57612d2c612aab565b5b6000612d3b85828601612d01565b9250506020612d4c85828601612c4c565b9150509250929050565b600080600060608486031215612d6f57612d6e612aab565b5b6000612d7d86828701612d01565b9350506020612d8e86828701612d01565b9250506040612d9f86828701612c4c565b9150509250925092565b60008060408385031215612dc057612dbf612aab565b5b6000612dce85828601612c4c565b9250506020612ddf85828601612c4c565b9150509250929050565b612df281612c2b565b82525050565b6000602082019050612e0d6000830184612de9565b92915050565b600081519050919050565b600082825260208201905092915050565b6000819050602082019050919050565b612e4881612c2b565b82525050565b6000612e5a8383612e3f565b60208301905092915050565b6000602082019050919050565b6000612e7e82612e13565b612e888185612e1e565b9350612e9383612e2f565b8060005b83811015612ec4578151612eab8882612e4e565b9750612eb683612e66565b925050600181019050612e97565b5085935050505092915050565b60006020820190508181036000830152612eeb8184612e73565b905092915050565b600060208284031215612f0957612f08612aab565b5b6000612f1784828501612d01565b91505092915050565b612f2981612b3a565b8114612f3457600080fd5b50565b600081359050612f4681612f20565b92915050565b60008060408385031215612f6357612f62612aab565b5b6000612f7185828601612d01565b9250506020612f8285828601612f37565b9150509250929050565b600080fd5b600080fd5b7f4e487b7100000000000000000000000000000000000000000000000000000000600052604160045260246000fd5b612fce82612bbf565b810181811067ffffffffffffffff82111715612fed57612fec612f96565b5b80604052505050565b6000613000612aa1565b905061300c8282612fc5565b919050565b600067ffffffffffffffff82111561302c5761302b612f96565b5b61303582612bbf565b9050602081019050919050565b82818337600083830152505050565b600061306461305f84613011565b612ff6565b9050828152602081018484840111156130805761307f612f91565b5b61308b848285613042565b509392505050565b600082601f8301126130a8576130a7612f8c565b5b81356130b8848260208601613051565b91505092915050565b600080600080608085870312156130db576130da612aab565b5b60006130e987828801612d01565b94505060206130fa87828801612d01565b935050604061310b87828801612c4c565b925050606085013567ffffffffffffffff81111561312c5761312b612ab0565b5b61313887828801613093565b91505092959194509250565b6000806040838503121561315b5761315a612aab565b5b600061316985828601612d01565b925050602061317a85828601612d01565b9150509250929050565b600067ffffffffffffffff82111561319f5761319e612f96565b5b6131a882612bbf565b9050602081019050919050565b60006131c86131c384613184565b612ff6565b9050828152602081018484840111156131e4576131e3612f91565b5b6131ef848285613042565b509392505050565b600082601f83011261320c5761320b612f8c565b5b813561321c8482602086016131b5565b91505092915050565b600067ffffffffffffffff8211156132405761323f612f96565b5b602082029050602081019050919050565b600080fd5b600061326961326484613225565b612ff6565b9050808382526020820190506020840283018581111561328c5761328b613251565b5b835b818110156132b557806132a18882612c4c565b84526020840193505060208101905061328e565b5050509392505050565b600082601f8301126132d4576132d3612f8c565b5b81356132e4848260208601613256565b91505092915050565b6000806040838503121561330457613303612aab565b5b600083013567ffffffffffffffff81111561332257613321612ab0565b5b61332e858286016131f7565b925050602083013567ffffffffffffffff81111561334f5761334e612ab0565b5b61335b858286016132bf565b9150509250929050565b7f4e487b7100000000000000000000000000000000000000000000000000000000600052602260045260246000fd5b600060028204905060018216806133ac57607f821691505b602082108114156133c0576133bf613365565b5b50919050565b7f4552433732313a20617070726f76616c20746f2063757272656e74206f776e6560008201527f7200000000000000000000000000000000000000000000000000000000000000602082015250565b6000613422602183612b7b565b915061342d826133c6565b604082019050919050565b6000602082019050818103600083015261345181613415565b9050919050565b7f4552433732313a20617070726f76652063616c6c6572206973206e6f7420746f60008201527f6b656e206f776e6572206f7220617070726f76656420666f7220616c6c000000602082015250565b60006134b4603d83612b7b565b91506134bf82613458565b604082019050919050565b600060208201905081810360008301526134e3816134a7565b9050919050565b7f4552433732313a2063616c6c6572206973206e6f7420746f6b656e206f776e6560008201527f72206f7220617070726f76656400000000000000000000000000000000000000602082015250565b6000613546602d83612b7b565b9150613551826134ea565b604082019050919050565b6000602082019050818103600083015261357581613539565b9050919050565b7f4e487b7100000000000000000000000000000000000000000000000000000000600052601160045260246000fd5b60006135b682612c2b565b91506135c183612c2b565b9250817fffffffffffffffffffffffffffffffffffffffffffffffffffffffffffffffff04831182151516156135fa576135f961357c565b5b828202905092915050565b7f4e487b7100000000000000000000000000000000000000000000000000000000600052601260045260246000fd5b600061363f82612c2b565b915061364a83612c2b565b92508261365a57613659613605565b5b828204905092915050565b600061367082612c2b565b915061367b83612c2b565b92508282101561368e5761368d61357c565b5b828203905092915050565b7f5f6765745265666572656e636573203a20656e74657220612076616c6964207460008201527f6f6b656e20496400000000000000000000000000000000000000000000000000602082015250565b60006136f5602783612b7b565b915061370082613699565b604082019050919050565b60006020820190508181036000830152613724816136e8565b9050919050565b7f546865726520617265206e6f2066756e647320746f20626520636c61696d656460008201527f20746f2074686973207265666572656e63650000000000000000000000000000602082015250565b6000613787603283612b7b565b91506137928261372b565b604082019050919050565b600060208201905081810360008301526137b68161377a565b9050919050565b60006137c882612c2b565b91506137d383612c2b565b9250827fffffffffffffffffffffffffffffffffffffffffffffffffffffffffffffffff038211156138085761380761357c565b5b828201905092915050565b600081905092915050565b50565b600061382e600083613813565b91506138398261381e565b600082019050919050565b600061384f82613821565b9150819050919050565b7f5472616e73666572206f6620636c61696d657227732066756e6473206661696c60008201527f6564000000000000000000000000000000000000000000000000000000000000602082015250565b60006138b5602283612b7b565b91506138c082613859565b604082019050919050565b600060208201905081810360008301526138e4816138a8565b9050919050565b7f6f6e6c79206f776e6572206f662074686520746f6b656e2063616e207365742060008201527f6120666f6c6c6f77206d65200000000000000000000000000000000000000000602082015250565b6000613947602c83612b7b565b9150613952826138eb565b604082019050919050565b600060208201905081810360008301526139768161393a565b9050919050565b7f4552433732313a20696e76616c696420746f6b656e2049440000000000000000600082015250565b60006139b3601883612b7b565b91506139be8261397d565b602082019050919050565b600060208201905081810360008301526139e2816139a6565b9050919050565b7f4552433732313a2061646472657373207a65726f206973206e6f74206120766160008201527f6c6964206f776e65720000000000000000000000000000000000000000000000602082015250565b6000613a45602983612b7b565b9150613a50826139e9565b604082019050919050565b60006020820190508181036000830152613a7481613a38565b9050919050565b7f546865726520617265206e6f2066756e647320746f20626520636c61696d656460008201527f20666f7220746865206f776e6572000000000000000000000000000000000000602082015250565b6000613ad7602e83612b7b565b9150613ae282613a7b565b604082019050919050565b60006020820190508181036000830152613b0681613aca565b9050919050565b7f5472616e73666572206f66206f776e657227732066756e6473206661696c6564600082015250565b6000613b43602083612b7b565b9150613b4e82613b0d565b602082019050919050565b60006020820190508181036000830152613b7281613b36565b9050919050565b600081905092915050565b6000613b8f82612b70565b613b998185613b79565b9350613ba9818560208601612b8c565b80840191505092915050565b6000613bc18285613b84565b9150613bcd8284613b84565b91508190509392505050565b7f546f6b656e20646f6573206e6f742065786973742e0000000000000000000000600082015250565b6000613c0f601583612b7b565b9150613c1a82613bd9565b602082019050919050565b60006020820190508181036000830152613c3e81613c02565b9050919050565b7f4f776e61626c653a206e6577206f776e657220697320746865207a65726f206160008201527f6464726573730000000000000000000000000000000000000000000000000000602082015250565b6000613ca1602683612b7b565b9150613cac82613c45565b604082019050919050565b60006020820190508181036000830152613cd081613c94565b9050919050565b7f4552433732313a207472616e736665722066726f6d20696e636f72726563742060008201527f6f776e6572000000000000000000000000000000000000000000000000000000602082015250565b6000613d33602583612b7b565b9150613d3e82613cd7565b604082019050919050565b60006020820190508181036000830152613d6281613d26565b9050919050565b7f4552433732313a207472616e7366657220746f20746865207a65726f2061646460008201527f7265737300000000000000000000000000000000000000000000000000000000602082015250565b6000613dc5602483612b7b565b9150613dd082613d69565b604082019050919050565b60006020820190508181036000830152613df481613db8565b9050919050565b7f5265656e7472616e637947756172643a207265656e7472616e742063616c6c00600082015250565b6000613e31601f83612b7b565b9150613e3c82613dfb565b602082019050919050565b60006020820190508181036000830152613e6081613e24565b9050919050565b7f4f776e61626c653a2063616c6c6572206973206e6f7420746865206f776e6572600082015250565b6000613e9d602083612b7b565b9150613ea882613e67565b602082019050919050565b60006020820190508181036000830152613ecc81613e90565b9050919050565b7f4552433732313a20617070726f766520746f2063616c6c657200000000000000600082015250565b6000613f09601983612b7b565b9150613f1482613ed3565b602082019050919050565b60006020820190508181036000830152613f3881613efc565b9050919050565b7f4552433732313a207472616e7366657220746f206e6f6e20455243373231526560008201527f63656976657220696d706c656d656e7465720000000000000000000000000000602082015250565b6000613f9b603283612b7b565b9150613fa682613f3f565b604082019050919050565b60006020820190508181036000830152613fca81613f8e565b9050919050565b7f4552433732313a206d696e7420746f20746865207a65726f2061646472657373600082015250565b6000614007602083612b7b565b915061401282613fd1565b602082019050919050565b6000602082019050818103600083015261403681613ffa565b9050919050565b7f4552433732313a20746f6b656e20616c7265616479206d696e74656400000000600082015250565b6000614073601c83612b7b565b915061407e8261403d565b602082019050919050565b600060208201905081810360008301526140a281614066565b9050919050565b7f45524337323155524953746f726167653a2055524920736574206f66206e6f6e60008201527f6578697374656e7420746f6b656e000000000000000000000000000000000000602082015250565b6000614105602e83612b7b565b9150614110826140a9565b604082019050919050565b60006020820190508181036000830152614134816140f8565b9050919050565b7f4e487b7100000000000000000000000000000000000000000000000000000000600052603260045260246000fd5b7f5f6372656174655265666572656e6365733a20496e76616c696420746f6b656e60008201527f496420696e205265666572656e636520656e7472696573000000000000000000602082015250565b60006141c6603783612b7b565b91506141d18261416a565b604082019050919050565b600060208201905081810360008301526141f5816141b9565b9050919050565b600061420782612c2b565b91507fffffffffffffffffffffffffffffffffffffffffffffffffffffffffffffffff82141561423a5761423961357c565b5b600182019050919050565b600081519050919050565b600082825260208201905092915050565b600061426c82614245565b6142768185614250565b9350614286818560208601612b8c565b61428f81612bbf565b840191505092915050565b60006080820190506142af6000830187612cc0565b6142bc6020830186612cc0565b6142c96040830185612de9565b81810360608301526142db8184614261565b905095945050505050565b6000815190506142f581612ae1565b92915050565b60006020828403121561431157614310612aab565b5b600061431f848285016142e6565b9150509291505056fea2646970667358221220e3f6e73e062bec31302050109e3bd347cf02bbe8a5dcda4d6159d6279deb41e464736f6c634300080a0033",
  "devdoc": {
    "kind": "dev",
    "methods": {
      "approve(address,uint256)": {
        "details": "See {IERC721-approve}."
      },
      "balanceOf(address)": {
        "details": "See {IERC721-balanceOf}."
      },
      "claimToOwner(uint256)": {
        "details": "sender pulls a fee _ and sends claimable value to address of the owner of _tokenId_: callable by any address",
        "params": {
          "tokenId": "id of the token having its donation pulled "
        }
      },
      "claimToRef(uint256,uint256)": {
        "details": "sender pulls a fee _ and sends claimable part of the donation balance to a reference NFT: callable by any address",
        "params": {
          "from": "id of the NFT having its donation balance claimed",
          "to": "id of the reference NFT receiving the donation balance"
        }
      },
      "claimable(uint256,uint256)": {
        "details": "owner of the token that received the donation has a claim to 2/3_ _references split the remaining 1/3",
        "params": {
          "from": "tokenId that received the donation",
          "to": "tokenId that has a claim over part of the donation received by _from_"
        },
        "returns": {
          "_0": "_ value that _to_ can receive for that particular token (_from_)"
        }
      },
      "donate(uint256)": {
        "details": "receives payment as donation updated _totalDonated[tokenId] if there is a _followMe set for _tokenId_ uses this entry as tokenId "
      },
      "getApproved(uint256)": {
        "details": "See {IERC721-getApproved}."
      },
      "isApprovedForAll(address,address)": {
        "details": "See {IERC721-isApprovedForAll}."
      },
      "name()": {
        "details": "See {IERC721Metadata-name}."
      },
      "owner()": {
        "details": "Returns the address of the current owner."
      },
      "ownerOf(uint256)": {
        "details": "See {IERC721-ownerOf}."
      },
      "renounceOwnership()": {
        "details": "Leaves the contract without owner. It will not be possible to call `onlyOwner` functions anymore. Can only be called by the current owner. NOTE: Renouncing ownership will leave the contract without an owner, thereby removing any functionality that is only available to the owner."
      },
      "safeTransferFrom(address,address,uint256)": {
        "details": "See {IERC721-safeTransferFrom}."
      },
      "safeTransferFrom(address,address,uint256,bytes)": {
        "details": "See {IERC721-safeTransferFrom}."
      },
      "setApprovalForAll(address,bool)": {
        "details": "See {IERC721-setApprovalForAll}."
      },
      "setFollowMe(uint256,uint256)": {
        "details": "updates followMe mapping ",
        "params": {
          "from": "the id of the old NFT",
          "to": "the id of the new updated NFT "
        }
      },
      "supportsInterface(bytes4)": {
        "details": "See {IERC165-supportsInterface}."
      },
      "symbol()": {
        "details": "See {IERC721Metadata-symbol}."
      },
      "tokenURI(uint256)": {
        "details": "See {IERC721Metadata-tokenURI}."
      },
      "transferFrom(address,address,uint256)": {
        "details": "See {IERC721-transferFrom}."
      },
      "transferOwnership(address)": {
        "details": "Transfers ownership of the contract to a new account (`newOwner`). Can only be called by the current owner."
      }
    },
    "stateVariables": {
      "_balanceClaimed": {
        "details": "total value ever claimed to _tokenTo_ from _tokenFrom_'s donations maps _(beneficiary, claimee)_ to _value_ _beneficiary_ is the token claiming part of the donation _claimee_ is the token that received the donation and is having its balance claimed"
      },
      "_followMe": {
        "details": "donations to _from_ are automatically sent to _to_ this mapping allows new tokens to be minted with updated references donations sent to old token are still received by the new one with the right split"
      },
      "_references": {
        "details": "list of references created for _tokenId_ list cannot be updated if references must be changed new token should be minted maps _tokenId_ to _reference list_"
      },
      "_totalClaimed": {
        "details": "total value ever claimed from _tokenId_'s donations maps _tokenId_ to _value_"
      },
      "_totalDonated": {
        "details": "total value ever donated to tokenId maps _tokenId_ to _value_"
      }
    },
    "version": 1
  },
  "userdoc": {
    "kind": "user",
    "methods": {
      "claimable(uint256,uint256)": {
        "notice": "gets the value that can be claimed for a pair (to, from)"
      },
      "setFollowMe(uint256,uint256)": {
        "notice": "should be used when a onwer wants to update _ the reference list, in which case a new NFT should be minted _ followMe guarantees that any donation sent to the old NFT will be _ sent to the new one and split between the new list of references"
      }
    },
    "version": 1
  },
  "storageLayout": {
    "storage": [
      {
        "astId": 192,
        "contract": "contracts/NFT.sol:NFT",
        "label": "_name",
        "offset": 0,
        "slot": "0",
        "type": "t_string_storage"
      },
      {
        "astId": 194,
        "contract": "contracts/NFT.sol:NFT",
        "label": "_symbol",
        "offset": 0,
        "slot": "1",
        "type": "t_string_storage"
      },
      {
        "astId": 198,
        "contract": "contracts/NFT.sol:NFT",
        "label": "_owners",
        "offset": 0,
        "slot": "2",
        "type": "t_mapping(t_uint256,t_address)"
      },
      {
        "astId": 202,
        "contract": "contracts/NFT.sol:NFT",
        "label": "_balances",
        "offset": 0,
        "slot": "3",
        "type": "t_mapping(t_address,t_uint256)"
      },
      {
        "astId": 206,
        "contract": "contracts/NFT.sol:NFT",
        "label": "_tokenApprovals",
        "offset": 0,
        "slot": "4",
        "type": "t_mapping(t_uint256,t_address)"
      },
      {
        "astId": 212,
        "contract": "contracts/NFT.sol:NFT",
        "label": "_operatorApprovals",
        "offset": 0,
        "slot": "5",
        "type": "t_mapping(t_address,t_mapping(t_address,t_bool))"
      },
      {
        "astId": 1258,
        "contract": "contracts/NFT.sol:NFT",
        "label": "_tokenURIs",
        "offset": 0,
        "slot": "6",
        "type": "t_mapping(t_uint256,t_string_storage)"
      },
      {
        "astId": 123,
        "contract": "contracts/NFT.sol:NFT",
        "label": "_status",
        "offset": 0,
        "slot": "7",
        "type": "t_uint256"
      },
      {
        "astId": 7,
        "contract": "contracts/NFT.sol:NFT",
        "label": "_owner",
        "offset": 0,
        "slot": "8",
        "type": "t_address"
      },
      {
        "astId": 3234,
        "contract": "contracts/NFT.sol:NFT",
        "label": "_tokenIds",
        "offset": 0,
        "slot": "9",
        "type": "t_struct(Counter)1755_storage"
      },
      {
        "astId": 3239,
        "contract": "contracts/NFT.sol:NFT",
        "label": "_totalDonated",
        "offset": 0,
        "slot": "10",
        "type": "t_mapping(t_uint256,t_uint256)"
      },
      {
        "astId": 3244,
        "contract": "contracts/NFT.sol:NFT",
        "label": "_totalClaimed",
        "offset": 0,
        "slot": "11",
        "type": "t_mapping(t_uint256,t_uint256)"
      },
      {
        "astId": 3251,
        "contract": "contracts/NFT.sol:NFT",
        "label": "_balanceClaimed",
        "offset": 0,
        "slot": "12",
        "type": "t_mapping(t_uint256,t_mapping(t_uint256,t_uint256))"
      },
      {
        "astId": 3257,
        "contract": "contracts/NFT.sol:NFT",
        "label": "_references",
        "offset": 0,
        "slot": "13",
        "type": "t_mapping(t_uint256,t_array(t_uint256)dyn_storage)"
      },
      {
        "astId": 3262,
        "contract": "contracts/NFT.sol:NFT",
        "label": "_followMe",
        "offset": 0,
        "slot": "14",
        "type": "t_mapping(t_uint256,t_uint256)"
      },
      {
        "astId": 3264,
        "contract": "contracts/NFT.sol:NFT",
        "label": "_treasuryBalance",
        "offset": 0,
        "slot": "15",
        "type": "t_uint256"
      }
    ],
    "types": {
      "t_address": {
        "encoding": "inplace",
        "label": "address",
        "numberOfBytes": "20"
      },
      "t_array(t_uint256)dyn_storage": {
        "base": "t_uint256",
        "encoding": "dynamic_array",
        "label": "uint256[]",
        "numberOfBytes": "32"
      },
      "t_bool": {
        "encoding": "inplace",
        "label": "bool",
        "numberOfBytes": "1"
      },
      "t_mapping(t_address,t_bool)": {
        "encoding": "mapping",
        "key": "t_address",
        "label": "mapping(address => bool)",
        "numberOfBytes": "32",
        "value": "t_bool"
      },
      "t_mapping(t_address,t_mapping(t_address,t_bool))": {
        "encoding": "mapping",
        "key": "t_address",
        "label": "mapping(address => mapping(address => bool))",
        "numberOfBytes": "32",
        "value": "t_mapping(t_address,t_bool)"
      },
      "t_mapping(t_address,t_uint256)": {
        "encoding": "mapping",
        "key": "t_address",
        "label": "mapping(address => uint256)",
        "numberOfBytes": "32",
        "value": "t_uint256"
      },
      "t_mapping(t_uint256,t_address)": {
        "encoding": "mapping",
        "key": "t_uint256",
        "label": "mapping(uint256 => address)",
        "numberOfBytes": "32",
        "value": "t_address"
      },
      "t_mapping(t_uint256,t_array(t_uint256)dyn_storage)": {
        "encoding": "mapping",
        "key": "t_uint256",
        "label": "mapping(uint256 => uint256[])",
        "numberOfBytes": "32",
        "value": "t_array(t_uint256)dyn_storage"
      },
      "t_mapping(t_uint256,t_mapping(t_uint256,t_uint256))": {
        "encoding": "mapping",
        "key": "t_uint256",
        "label": "mapping(uint256 => mapping(uint256 => uint256))",
        "numberOfBytes": "32",
        "value": "t_mapping(t_uint256,t_uint256)"
      },
      "t_mapping(t_uint256,t_string_storage)": {
        "encoding": "mapping",
        "key": "t_uint256",
        "label": "mapping(uint256 => string)",
        "numberOfBytes": "32",
        "value": "t_string_storage"
      },
      "t_mapping(t_uint256,t_uint256)": {
        "encoding": "mapping",
        "key": "t_uint256",
        "label": "mapping(uint256 => uint256)",
        "numberOfBytes": "32",
        "value": "t_uint256"
      },
      "t_string_storage": {
        "encoding": "bytes",
        "label": "string",
        "numberOfBytes": "32"
      },
      "t_struct(Counter)1755_storage": {
        "encoding": "inplace",
        "label": "struct Counters.Counter",
        "members": [
          {
            "astId": 1754,
            "contract": "contracts/NFT.sol:NFT",
            "label": "_value",
            "offset": 0,
            "slot": "0",
            "type": "t_uint256"
          }
        ],
        "numberOfBytes": "32"
      },
      "t_uint256": {
        "encoding": "inplace",
        "label": "uint256",
        "numberOfBytes": "32"
      }
    }
  }
}