{
  "address": "0x81b07929881eB81a67EBafAf6C5a33b84c0AFcf2",
  "abi": [
    {
      "inputs": [],
      "stateMutability": "nonpayable",
      "type": "constructor"
    },
    {
      "anonymous": false,
      "inputs": [
        {
          "indexed": true,
          "internalType": "address",
          "name": "owner",
          "type": "address"
        },
        {
          "indexed": true,
          "internalType": "address",
          "name": "approved",
          "type": "address"
        },
        {
          "indexed": true,
          "internalType": "uint256",
          "name": "tokenId",
          "type": "uint256"
        }
      ],
      "name": "Approval",
      "type": "event"
    },
    {
      "anonymous": false,
      "inputs": [
        {
          "indexed": true,
          "internalType": "address",
          "name": "owner",
          "type": "address"
        },
        {
          "indexed": true,
          "internalType": "address",
          "name": "operator",
          "type": "address"
        },
        {
          "indexed": false,
          "internalType": "bool",
          "name": "approved",
          "type": "bool"
        }
      ],
      "name": "ApprovalForAll",
      "type": "event"
    },
    {
      "anonymous": false,
      "inputs": [
        {
          "indexed": false,
          "internalType": "address",
          "name": "donor",
          "type": "address"
        },
        {
          "indexed": false,
          "internalType": "uint256",
          "name": "tokenId",
          "type": "uint256"
        },
        {
          "indexed": false,
          "internalType": "uint256",
          "name": "value",
          "type": "uint256"
        }
      ],
      "name": "Donation",
      "type": "event"
    },
    {
      "anonymous": false,
      "inputs": [
        {
          "indexed": false,
          "internalType": "uint256",
          "name": "from",
          "type": "uint256"
        },
        {
          "indexed": false,
          "internalType": "uint256",
          "name": "to",
          "type": "uint256"
        },
        {
          "indexed": false,
          "internalType": "uint256",
          "name": "valueClaimed",
          "type": "uint256"
        }
      ],
      "name": "DonationClaimed",
      "type": "event"
    },
    {
      "anonymous": false,
      "inputs": [
        {
          "indexed": false,
          "internalType": "uint256",
          "name": "from",
          "type": "uint256"
        },
        {
          "indexed": false,
          "internalType": "uint256",
          "name": "to",
          "type": "uint256"
        }
      ],
      "name": "FollowMePut",
      "type": "event"
    },
    {
      "anonymous": false,
      "inputs": [
        {
          "indexed": true,
          "internalType": "address",
          "name": "previousOwner",
          "type": "address"
        },
        {
          "indexed": true,
          "internalType": "address",
          "name": "newOwner",
          "type": "address"
        }
      ],
      "name": "OwnershipTransferred",
      "type": "event"
    },
    {
      "anonymous": false,
      "inputs": [
        {
          "indexed": true,
          "internalType": "address",
          "name": "from",
          "type": "address"
        },
        {
          "indexed": true,
          "internalType": "address",
          "name": "to",
          "type": "address"
        },
        {
          "indexed": true,
          "internalType": "uint256",
          "name": "tokenId",
          "type": "uint256"
        }
      ],
      "name": "Transfer",
      "type": "event"
    },
    {
      "inputs": [
        {
          "internalType": "address",
          "name": "to",
          "type": "address"
        },
        {
          "internalType": "uint256",
          "name": "tokenId",
          "type": "uint256"
        }
      ],
      "name": "approve",
      "outputs": [],
      "stateMutability": "nonpayable",
      "type": "function"
    },
    {
      "inputs": [
        {
          "internalType": "address",
          "name": "owner",
          "type": "address"
        }
      ],
      "name": "balanceOf",
      "outputs": [
        {
          "internalType": "uint256",
          "name": "",
          "type": "uint256"
        }
      ],
      "stateMutability": "view",
      "type": "function"
    },
    {
      "inputs": [
        {
          "internalType": "uint256",
          "name": "to",
          "type": "uint256"
        },
        {
          "internalType": "uint256",
          "name": "from",
          "type": "uint256"
        }
      ],
      "name": "claimDonation",
      "outputs": [],
      "stateMutability": "payable",
      "type": "function"
    },
    {
      "inputs": [
        {
          "internalType": "uint256",
          "name": "beneficiary",
          "type": "uint256"
        },
        {
          "internalType": "uint256",
          "name": "claimee",
          "type": "uint256"
        }
      ],
      "name": "claimable",
      "outputs": [
        {
          "internalType": "uint256",
          "name": "",
          "type": "uint256"
        }
      ],
      "stateMutability": "view",
      "type": "function"
    },
    {
      "inputs": [
        {
          "internalType": "string",
          "name": "tokenURI",
          "type": "string"
        },
        {
          "internalType": "uint256[]",
          "name": "refs",
          "type": "uint256[]"
        }
      ],
      "name": "createToken",
      "outputs": [
        {
          "internalType": "uint256",
          "name": "",
          "type": "uint256"
        }
      ],
      "stateMutability": "nonpayable",
      "type": "function"
    },
    {
      "inputs": [
        {
          "internalType": "uint256",
          "name": "tokenId",
          "type": "uint256"
        }
      ],
      "name": "donate",
      "outputs": [],
      "stateMutability": "payable",
      "type": "function"
    },
    {
      "inputs": [
        {
          "internalType": "uint256",
          "name": "tokenId",
          "type": "uint256"
        }
      ],
      "name": "getApproved",
      "outputs": [
        {
          "internalType": "address",
          "name": "",
          "type": "address"
        }
      ],
      "stateMutability": "view",
      "type": "function"
    },
    {
      "inputs": [
        {
          "internalType": "uint256",
          "name": "tokenId",
          "type": "uint256"
        }
      ],
      "name": "getReferences",
      "outputs": [
        {
          "internalType": "uint256[]",
          "name": "",
          "type": "uint256[]"
        }
      ],
      "stateMutability": "view",
      "type": "function"
    },
    {
      "inputs": [],
      "name": "getTreasuryBalance",
      "outputs": [
        {
          "internalType": "uint256",
          "name": "",
          "type": "uint256"
        }
      ],
      "stateMutability": "view",
      "type": "function"
    },
    {
      "inputs": [
        {
          "internalType": "address",
          "name": "owner",
          "type": "address"
        },
        {
          "internalType": "address",
          "name": "operator",
          "type": "address"
        }
      ],
      "name": "isApprovedForAll",
      "outputs": [
        {
          "internalType": "bool",
          "name": "",
          "type": "bool"
        }
      ],
      "stateMutability": "view",
      "type": "function"
    },
    {
      "inputs": [],
      "name": "name",
      "outputs": [
        {
          "internalType": "string",
          "name": "",
          "type": "string"
        }
      ],
      "stateMutability": "view",
      "type": "function"
    },
    {
      "inputs": [],
      "name": "numberOfTokens",
      "outputs": [
        {
          "internalType": "uint256",
          "name": "",
          "type": "uint256"
        }
      ],
      "stateMutability": "view",
      "type": "function"
    },
    {
      "inputs": [],
      "name": "owner",
      "outputs": [
        {
          "internalType": "address",
          "name": "",
          "type": "address"
        }
      ],
      "stateMutability": "view",
      "type": "function"
    },
    {
      "inputs": [
        {
          "internalType": "uint256",
          "name": "tokenId",
          "type": "uint256"
        }
      ],
      "name": "ownerOf",
      "outputs": [
        {
          "internalType": "address",
          "name": "",
          "type": "address"
        }
      ],
      "stateMutability": "view",
      "type": "function"
    },
    {
      "inputs": [],
      "name": "renounceOwnership",
      "outputs": [],
      "stateMutability": "nonpayable",
      "type": "function"
    },
    {
      "inputs": [
        {
          "internalType": "address",
          "name": "from",
          "type": "address"
        },
        {
          "internalType": "address",
          "name": "to",
          "type": "address"
        },
        {
          "internalType": "uint256",
          "name": "tokenId",
          "type": "uint256"
        }
      ],
      "name": "safeTransferFrom",
      "outputs": [],
      "stateMutability": "nonpayable",
      "type": "function"
    },
    {
      "inputs": [
        {
          "internalType": "address",
          "name": "from",
          "type": "address"
        },
        {
          "internalType": "address",
          "name": "to",
          "type": "address"
        },
        {
          "internalType": "uint256",
          "name": "tokenId",
          "type": "uint256"
        },
        {
          "internalType": "bytes",
          "name": "data",
          "type": "bytes"
        }
      ],
      "name": "safeTransferFrom",
      "outputs": [],
      "stateMutability": "nonpayable",
      "type": "function"
    },
    {
      "inputs": [
        {
          "internalType": "address",
          "name": "operator",
          "type": "address"
        },
        {
          "internalType": "bool",
          "name": "approved",
          "type": "bool"
        }
      ],
      "name": "setApprovalForAll",
      "outputs": [],
      "stateMutability": "nonpayable",
      "type": "function"
    },
    {
      "inputs": [
        {
          "internalType": "uint256",
          "name": "from",
          "type": "uint256"
        },
        {
          "internalType": "uint256",
          "name": "to",
          "type": "uint256"
        }
      ],
      "name": "setFollowMe",
      "outputs": [],
      "stateMutability": "nonpayable",
      "type": "function"
    },
    {
      "inputs": [
        {
          "internalType": "bytes4",
          "name": "interfaceId",
          "type": "bytes4"
        }
      ],
      "name": "supportsInterface",
      "outputs": [
        {
          "internalType": "bool",
          "name": "",
          "type": "bool"
        }
      ],
      "stateMutability": "view",
      "type": "function"
    },
    {
      "inputs": [],
      "name": "symbol",
      "outputs": [
        {
          "internalType": "string",
          "name": "",
          "type": "string"
        }
      ],
      "stateMutability": "view",
      "type": "function"
    },
    {
      "inputs": [
        {
          "internalType": "uint256",
          "name": "tokenId",
          "type": "uint256"
        }
      ],
      "name": "tokenDonationBalance",
      "outputs": [
        {
          "internalType": "uint256",
          "name": "",
          "type": "uint256"
        }
      ],
      "stateMutability": "view",
      "type": "function"
    },
    {
      "inputs": [
        {
          "internalType": "uint256",
          "name": "tokenId",
          "type": "uint256"
        }
      ],
      "name": "tokenTotalDonated",
      "outputs": [
        {
          "internalType": "uint256",
          "name": "",
          "type": "uint256"
        }
      ],
      "stateMutability": "view",
      "type": "function"
    },
    {
      "inputs": [
        {
          "internalType": "uint256",
          "name": "tokenId",
          "type": "uint256"
        }
      ],
      "name": "tokenURI",
      "outputs": [
        {
          "internalType": "string",
          "name": "",
          "type": "string"
        }
      ],
      "stateMutability": "view",
      "type": "function"
    },
    {
      "inputs": [
        {
          "internalType": "address",
          "name": "from",
          "type": "address"
        },
        {
          "internalType": "address",
          "name": "to",
          "type": "address"
        },
        {
          "internalType": "uint256",
          "name": "tokenId",
          "type": "uint256"
        }
      ],
      "name": "transferFrom",
      "outputs": [],
      "stateMutability": "nonpayable",
      "type": "function"
    },
    {
      "inputs": [
        {
          "internalType": "address",
          "name": "newOwner",
          "type": "address"
        }
      ],
      "name": "transferOwnership",
      "outputs": [],
      "stateMutability": "nonpayable",
      "type": "function"
    }
  ],
  "transactionHash": "0x0a771b05f392d14586413ce30af6397710182dafe89169a82389d3abc89974ea",
  "args": [],
  "numDeployments": 4,
  "solcInputHash": "71ebc1e1c99a422345efe0b01efc09bd",
  "bytecode": "0x60806040523480156200001157600080fd5b506040518060400160405280600881526020017f53636947726170680000000000000000000000000000000000000000000000008152506040518060400160405280600481526020017f5343475000000000000000000000000000000000000000000000000000000000815250816000908051906020019062000096929190620001ae565b508060019080519060200190620000af929190620001ae565b5050506001600781905550620000da620000ce620000e060201b60201c565b620000e860201b60201c565b620002c3565b600033905090565b6000600860009054906101000a900473ffffffffffffffffffffffffffffffffffffffff16905081600860006101000a81548173ffffffffffffffffffffffffffffffffffffffff021916908373ffffffffffffffffffffffffffffffffffffffff1602179055508173ffffffffffffffffffffffffffffffffffffffff168173ffffffffffffffffffffffffffffffffffffffff167f8be0079c531659141344cd1fd0a4f28419497f9722a3daafe3b4186f6b6457e060405160405180910390a35050565b828054620001bc906200028d565b90600052602060002090601f016020900481019282620001e057600085556200022c565b82601f10620001fb57805160ff19168380011785556200022c565b828001600101855582156200022c579182015b828111156200022b5782518255916020019190600101906200020e565b5b5090506200023b91906200023f565b5090565b5b808211156200025a57600081600090555060010162000240565b5090565b7f4e487b7100000000000000000000000000000000000000000000000000000000600052602260045260246000fd5b60006002820490506001821680620002a657607f821691505b60208210811415620002bd57620002bc6200025e565b5b50919050565b61411b80620002d36000396000f3fe6080604052600436106101815760003560e01c80638da5cb5b116100d1578063c87b56dd1161008a578063f14faf6f11610064578063f14faf6f146105bd578063f2fde38b146105d9578063f3a99c0814610602578063f9f16ef21461063f57610181565b8063c87b56dd14610506578063e985e9c514610543578063eaf684cf1461058057610181565b80638da5cb5b146103f657806395d89b41146104215780639b5655dc1461044c5780639d5f08f114610477578063a22cb465146104b4578063b88d4fde146104dd57610181565b80632640fc3e1161013e5780635e287945116101185780635e2879451461033c5780636352211e1461036557806370a08231146103a2578063715018a6146103df57610181565b80632640fc3e146102995780633cfc7ae2146102d657806342842e0e1461031357610181565b806301ffc9a71461018657806306fdde03146101c3578063081812fc146101ee578063095ea7b31461022b578063218ff65a1461025457806323b872dd14610270575b600080fd5b34801561019257600080fd5b506101ad60048036038101906101a891906128a2565b61066a565b6040516101ba91906128ea565b60405180910390f35b3480156101cf57600080fd5b506101d861074c565b6040516101e5919061299e565b60405180910390f35b3480156101fa57600080fd5b50610215600480360381019061021091906129f6565b6107de565b6040516102229190612a64565b60405180910390f35b34801561023757600080fd5b50610252600480360381019061024d9190612aab565b610824565b005b61026e60048036038101906102699190612aeb565b61093c565b005b34801561027c57600080fd5b5061029760048036038101906102929190612b2b565b610bc7565b005b3480156102a557600080fd5b506102c060048036038101906102bb9190612aeb565b610c27565b6040516102cd9190612b8d565b60405180910390f35b3480156102e257600080fd5b506102fd60048036038101906102f891906129f6565b610d3a565b60405161030a9190612c66565b60405180910390f35b34801561031f57600080fd5b5061033a60048036038101906103359190612b2b565b610dfd565b005b34801561034857600080fd5b50610363600480360381019061035e9190612aeb565b610e1d565b005b34801561037157600080fd5b5061038c600480360381019061038791906129f6565b610eaf565b6040516103999190612a64565b60405180910390f35b3480156103ae57600080fd5b506103c960048036038101906103c49190612c88565b610f36565b6040516103d69190612b8d565b60405180910390f35b3480156103eb57600080fd5b506103f4610fee565b005b34801561040257600080fd5b5061040b611002565b6040516104189190612a64565b60405180910390f35b34801561042d57600080fd5b5061043661102c565b604051610443919061299e565b60405180910390f35b34801561045857600080fd5b506104616110be565b60405161046e9190612b8d565b60405180910390f35b34801561048357600080fd5b5061049e600480360381019061049991906129f6565b6110c8565b6040516104ab9190612b8d565b60405180910390f35b3480156104c057600080fd5b506104db60048036038101906104d69190612ce1565b611103565b005b3480156104e957600080fd5b5061050460048036038101906104ff9190612e56565b611119565b005b34801561051257600080fd5b5061052d600480360381019061052891906129f6565b61117b565b60405161053a919061299e565b60405180910390f35b34801561054f57600080fd5b5061056a60048036038101906105659190612ed9565b61128e565b60405161057791906128ea565b60405180910390f35b34801561058c57600080fd5b506105a760048036038101906105a29190613082565b611322565b6040516105b49190612b8d565b60405180910390f35b6105d760048036038101906105d291906129f6565b611363565b005b3480156105e557600080fd5b5061060060048036038101906105fb9190612c88565b6114ac565b005b34801561060e57600080fd5b50610629600480360381019061062491906129f6565b611530565b6040516106369190612b8d565b60405180910390f35b34801561064b57600080fd5b5061065461154d565b6040516106619190612b8d565b60405180910390f35b60007f80ac58cd000000000000000000000000000000000000000000000000000000007bffffffffffffffffffffffffffffffffffffffffffffffffffffffff1916827bffffffffffffffffffffffffffffffffffffffffffffffffffffffff1916148061073557507f5b5e139f000000000000000000000000000000000000000000000000000000007bffffffffffffffffffffffffffffffffffffffffffffffffffffffff1916827bffffffffffffffffffffffffffffffffffffffffffffffffffffffff1916145b8061074557506107448261155e565b5b9050919050565b60606000805461075b90613129565b80601f016020809104026020016040519081016040528092919081815260200182805461078790613129565b80156107d45780601f106107a9576101008083540402835291602001916107d4565b820191906000526020600020905b8154815290600101906020018083116107b757829003601f168201915b5050505050905090565b60006107e9826115c8565b6004600083815260200190815260200160002060009054906101000a900473ffffffffffffffffffffffffffffffffffffffff169050919050565b600061082f82610eaf565b90508073ffffffffffffffffffffffffffffffffffffffff168373ffffffffffffffffffffffffffffffffffffffff1614156108a0576040517f08c379a0000000000000000000000000000000000000000000000000000000008152600401610897906131cd565b60405180910390fd5b8073ffffffffffffffffffffffffffffffffffffffff166108bf611613565b73ffffffffffffffffffffffffffffffffffffffff1614806108ee57506108ed816108e8611613565b61128e565b5b61092d576040517f08c379a00000000000000000000000000000000000000000000000000000000081526004016109249061325f565b60405180910390fd5b610937838361161b565b505050565b6109446116d4565b60006109508383610c27565b905060008111610995576040517f08c379a000000000000000000000000000000000000000000000000000000000815260040161098c90613317565b60405180910390fd5b60006064826109a49190613395565b90507fa7116c38c2fc13dbd2d57ce586bb24784466a4b1f54b8f2676b220044a26f55d8385846040516109d9939291906133c6565b60405180910390a181600b60008581526020019081526020016000206000828254610a0491906133fd565b9250508190555081600c600086815260200190815260200160002060008581526020019081526020016000206000828254610a3f91906133fd565b925050819055506000610a5185610eaf565b905060008173ffffffffffffffffffffffffffffffffffffffff168385610a789190613453565b604051610a84906134b8565b60006040518083038185875af1925050503d8060008114610ac1576040519150601f19603f3d011682016040523d82523d6000602084013e610ac6565b606091505b5050905080610b0a576040517f08c379a0000000000000000000000000000000000000000000000000000000008152600401610b019061353f565b60405180910390fd5b60003373ffffffffffffffffffffffffffffffffffffffff1684604051610b30906134b8565b60006040518083038185875af1925050503d8060008114610b6d576040519150601f19603f3d011682016040523d82523d6000602084013e610b72565b606091505b5050905080610bb6576040517f08c379a0000000000000000000000000000000000000000000000000000000008152600401610bad906135d1565b60405180910390fd5b5050505050610bc3611724565b5050565b610bd8610bd2611613565b8261172e565b610c17576040517f08c379a0000000000000000000000000000000000000000000000000000000008152600401610c0e90613663565b60405180910390fd5b610c228383836117c3565b505050565b600080600d6000848152602001908152602001600020805490501115610d285781831415610cb157600c600083815260200190815260200160002060008381526020019081526020016000205460036002600a600086815260200190815260200160002054610c969190613683565b610ca09190613395565b610caa9190613453565b9050610d34565b600c6000848152602001908152602001600020600083815260200190815260200160002054600d6000848152602001908152602001600020805490506003600a600086815260200190815260200160002054610d0d9190613395565b610d179190613395565b610d219190613453565b9050610d34565b610d31826110c8565b90505b92915050565b606060008210158015610d555750610d526009611abd565b82105b610d94576040517f08c379a0000000000000000000000000000000000000000000000000000000008152600401610d8b9061374f565b60405180910390fd5b600d6000838152602001908152602001600020805480602002602001604051908101604052809291908181526020018280548015610df157602002820191906000526020600020905b815481526020019060010190808311610ddd575b50505050509050919050565b610e1883838360405180602001604052806000815250611119565b505050565b610e2682611acb565b73ffffffffffffffffffffffffffffffffffffffff163373ffffffffffffffffffffffffffffffffffffffff1614610e93576040517f08c379a0000000000000000000000000000000000000000000000000000000008152600401610e8a906137e1565b60405180910390fd5b80600e6000848152602001908152602001600020819055505050565b600080610ebb83611acb565b9050600073ffffffffffffffffffffffffffffffffffffffff168173ffffffffffffffffffffffffffffffffffffffff161415610f2d576040517f08c379a0000000000000000000000000000000000000000000000000000000008152600401610f249061384d565b60405180910390fd5b80915050919050565b60008073ffffffffffffffffffffffffffffffffffffffff168273ffffffffffffffffffffffffffffffffffffffff161415610fa7576040517f08c379a0000000000000000000000000000000000000000000000000000000008152600401610f9e906138df565b60405180910390fd5b600360008373ffffffffffffffffffffffffffffffffffffffff1673ffffffffffffffffffffffffffffffffffffffff168152602001908152602001600020549050919050565b610ff6611b08565b6110006000611b86565b565b6000600860009054906101000a900473ffffffffffffffffffffffffffffffffffffffff16905090565b60606001805461103b90613129565b80601f016020809104026020016040519081016040528092919081815260200182805461106790613129565b80156110b45780601f10611089576101008083540402835291602001916110b4565b820191906000526020600020905b81548152906001019060200180831161109757829003601f168201915b5050505050905090565b6000600f54905090565b6000600b600083815260200190815260200160002054600a6000848152602001908152602001600020546110fc9190613453565b9050919050565b61111561110e611613565b8383611c4c565b5050565b61112a611124611613565b8361172e565b611169576040517f08c379a000000000000000000000000000000000000000000000000000000000815260040161116090613663565b60405180910390fd5b61117584848484611db9565b50505050565b6060611186826115c8565b60006006600084815260200190815260200160002080546111a690613129565b80601f01602080910402602001604051908101604052809291908181526020018280546111d290613129565b801561121f5780601f106111f45761010080835404028352916020019161121f565b820191906000526020600020905b81548152906001019060200180831161120257829003601f168201915b505050505090506000611230611e15565b9050600081511415611246578192505050611289565b60008251111561127b57808260405160200161126392919061393b565b60405160208183030381529060405292505050611289565b61128484611e2c565b925050505b919050565b6000600560008473ffffffffffffffffffffffffffffffffffffffff1673ffffffffffffffffffffffffffffffffffffffff16815260200190815260200160002060008373ffffffffffffffffffffffffffffffffffffffff1673ffffffffffffffffffffffffffffffffffffffff16815260200190815260200160002060009054906101000a900460ff16905092915050565b60008061132f6009611abd565b905061133b6009611e94565b6113453382611eaa565b61134f81856120c8565b611359818461213c565b8091505092915050565b61136b6116d4565b6113756009611abd565b81106113b6576040517f08c379a00000000000000000000000000000000000000000000000000000000081526004016113ad906139ab565b60405180910390fd5b60006064346113c59190613395565b90506000600e600084815260200190815260200160002054146113f957600e60008381526020019081526020016000205491505b61142a81346114089190613453565b600a6000858152602001908152602001600020546121ed90919063ffffffff16565b600a6000848152602001908152602001600020819055507f106aac375bbcf013d1e52338bbf9e740009a1a3a6869f8daa1b72aa1620f5fec338383346114709190613453565b60405161147f939291906139cb565b60405180910390a180600f600082825461149991906133fd565b92505081905550506114a9611724565b50565b6114b4611b08565b600073ffffffffffffffffffffffffffffffffffffffff168173ffffffffffffffffffffffffffffffffffffffff161415611524576040517f08c379a000000000000000000000000000000000000000000000000000000000815260040161151b90613a74565b60405180910390fd5b61152d81611b86565b50565b6000600a6000838152602001908152602001600020549050919050565b60006115596009611abd565b905090565b60007f01ffc9a7000000000000000000000000000000000000000000000000000000007bffffffffffffffffffffffffffffffffffffffffffffffffffffffff1916827bffffffffffffffffffffffffffffffffffffffffffffffffffffffff1916149050919050565b6115d181612203565b611610576040517f08c379a00000000000000000000000000000000000000000000000000000000081526004016116079061384d565b60405180910390fd5b50565b600033905090565b816004600083815260200190815260200160002060006101000a81548173ffffffffffffffffffffffffffffffffffffffff021916908373ffffffffffffffffffffffffffffffffffffffff160217905550808273ffffffffffffffffffffffffffffffffffffffff1661168e83610eaf565b73ffffffffffffffffffffffffffffffffffffffff167f8c5be1e5ebec7d5bd14f71427d1e84f3dd0314c0f7b2291e5b200ac8c7c3b92560405160405180910390a45050565b6002600754141561171a576040517f08c379a000000000000000000000000000000000000000000000000000000000815260040161171190613ae0565b60405180910390fd5b6002600781905550565b6001600781905550565b60008061173a83610eaf565b90508073ffffffffffffffffffffffffffffffffffffffff168473ffffffffffffffffffffffffffffffffffffffff16148061177c575061177b818561128e565b5b806117ba57508373ffffffffffffffffffffffffffffffffffffffff166117a2846107de565b73ffffffffffffffffffffffffffffffffffffffff16145b91505092915050565b8273ffffffffffffffffffffffffffffffffffffffff166117e382610eaf565b73ffffffffffffffffffffffffffffffffffffffff1614611839576040517f08c379a000000000000000000000000000000000000000000000000000000000815260040161183090613b72565b60405180910390fd5b600073ffffffffffffffffffffffffffffffffffffffff168273ffffffffffffffffffffffffffffffffffffffff1614156118a9576040517f08c379a00000000000000000000000000000000000000000000000000000000081526004016118a090613c04565b60405180910390fd5b6118b68383836001612244565b8273ffffffffffffffffffffffffffffffffffffffff166118d682610eaf565b73ffffffffffffffffffffffffffffffffffffffff161461192c576040517f08c379a000000000000000000000000000000000000000000000000000000000815260040161192390613b72565b60405180910390fd5b6004600082815260200190815260200160002060006101000a81549073ffffffffffffffffffffffffffffffffffffffff02191690556001600360008573ffffffffffffffffffffffffffffffffffffffff1673ffffffffffffffffffffffffffffffffffffffff168152602001908152602001600020600082825403925050819055506001600360008473ffffffffffffffffffffffffffffffffffffffff1673ffffffffffffffffffffffffffffffffffffffff16815260200190815260200160002060008282540192505081905550816002600083815260200190815260200160002060006101000a81548173ffffffffffffffffffffffffffffffffffffffff021916908373ffffffffffffffffffffffffffffffffffffffff160217905550808273ffffffffffffffffffffffffffffffffffffffff168473ffffffffffffffffffffffffffffffffffffffff167fddf252ad1be2c89b69c2b068fc378daa952ba7f163c4a11628f55a4df523b3ef60405160405180910390a4611ab8838383600161236a565b505050565b600081600001549050919050565b60006002600083815260200190815260200160002060009054906101000a900473ffffffffffffffffffffffffffffffffffffffff169050919050565b611b10611613565b73ffffffffffffffffffffffffffffffffffffffff16611b2e611002565b73ffffffffffffffffffffffffffffffffffffffff1614611b84576040517f08c379a0000000000000000000000000000000000000000000000000000000008152600401611b7b90613c70565b60405180910390fd5b565b6000600860009054906101000a900473ffffffffffffffffffffffffffffffffffffffff16905081600860006101000a81548173ffffffffffffffffffffffffffffffffffffffff021916908373ffffffffffffffffffffffffffffffffffffffff1602179055508173ffffffffffffffffffffffffffffffffffffffff168173ffffffffffffffffffffffffffffffffffffffff167f8be0079c531659141344cd1fd0a4f28419497f9722a3daafe3b4186f6b6457e060405160405180910390a35050565b8173ffffffffffffffffffffffffffffffffffffffff168373ffffffffffffffffffffffffffffffffffffffff161415611cbb576040517f08c379a0000000000000000000000000000000000000000000000000000000008152600401611cb290613cdc565b60405180910390fd5b80600560008573ffffffffffffffffffffffffffffffffffffffff1673ffffffffffffffffffffffffffffffffffffffff16815260200190815260200160002060008473ffffffffffffffffffffffffffffffffffffffff1673ffffffffffffffffffffffffffffffffffffffff16815260200190815260200160002060006101000a81548160ff0219169083151502179055508173ffffffffffffffffffffffffffffffffffffffff168373ffffffffffffffffffffffffffffffffffffffff167f17307eab39ab6107e8899845ad3d59bd9653f200f220920489ca2b5937696c3183604051611dac91906128ea565b60405180910390a3505050565b611dc48484846117c3565b611dd084848484612370565b611e0f576040517f08c379a0000000000000000000000000000000000000000000000000000000008152600401611e0690613d6e565b60405180910390fd5b50505050565b606060405180602001604052806000815250905090565b6060611e37826115c8565b6000611e41611e15565b90506000815111611e615760405180602001604052806000815250611e8c565b80611e6b846124f8565b604051602001611e7c92919061393b565b6040516020818303038152906040525b915050919050565b6001816000016000828254019250508190555050565b600073ffffffffffffffffffffffffffffffffffffffff168273ffffffffffffffffffffffffffffffffffffffff161415611f1a576040517f08c379a0000000000000000000000000000000000000000000000000000000008152600401611f1190613dda565b60405180910390fd5b611f2381612203565b15611f63576040517f08c379a0000000000000000000000000000000000000000000000000000000008152600401611f5a90613e46565b60405180910390fd5b611f71600083836001612244565b611f7a81612203565b15611fba576040517f08c379a0000000000000000000000000000000000000000000000000000000008152600401611fb190613e46565b60405180910390fd5b6001600360008473ffffffffffffffffffffffffffffffffffffffff1673ffffffffffffffffffffffffffffffffffffffff16815260200190815260200160002060008282540192505081905550816002600083815260200190815260200160002060006101000a81548173ffffffffffffffffffffffffffffffffffffffff021916908373ffffffffffffffffffffffffffffffffffffffff160217905550808273ffffffffffffffffffffffffffffffffffffffff16600073ffffffffffffffffffffffffffffffffffffffff167fddf252ad1be2c89b69c2b068fc378daa952ba7f163c4a11628f55a4df523b3ef60405160405180910390a46120c460008383600161236a565b5050565b6120d182612203565b612110576040517f08c379a000000000000000000000000000000000000000000000000000000000815260040161210790613ed8565b60405180910390fd5b80600660008481526020019081526020016000209080519060200190612137929190612746565b505050565b60005b81518110156121c0576121526009611abd565b82828151811061216557612164613ef8565b5b6020026020010151106121ad576040517f08c379a00000000000000000000000000000000000000000000000000000000081526004016121a490613f99565b60405180910390fd5b80806121b890613fb9565b91505061213f565b81600d600085815260200190815260200160002090805190602001906121e79291906127cc565b50505050565b600081836121fb91906133fd565b905092915050565b60008073ffffffffffffffffffffffffffffffffffffffff1661222583611acb565b73ffffffffffffffffffffffffffffffffffffffff1614159050919050565b600181111561236457600073ffffffffffffffffffffffffffffffffffffffff168473ffffffffffffffffffffffffffffffffffffffff16146122d85780600360008673ffffffffffffffffffffffffffffffffffffffff1673ffffffffffffffffffffffffffffffffffffffff16815260200190815260200160002060008282546122d09190613453565b925050819055505b600073ffffffffffffffffffffffffffffffffffffffff168373ffffffffffffffffffffffffffffffffffffffff16146123635780600360008573ffffffffffffffffffffffffffffffffffffffff1673ffffffffffffffffffffffffffffffffffffffff168152602001908152602001600020600082825461235b91906133fd565b925050819055505b5b50505050565b50505050565b60006123918473ffffffffffffffffffffffffffffffffffffffff166125d0565b156124eb578373ffffffffffffffffffffffffffffffffffffffff1663150b7a026123ba611613565b8786866040518563ffffffff1660e01b81526004016123dc9493929190614057565b6020604051808303816000875af192505050801561241857506040513d601f19601f8201168201806040525081019061241591906140b8565b60015b61249b573d8060008114612448576040519150601f19603f3d011682016040523d82523d6000602084013e61244d565b606091505b50600081511415612493576040517f08c379a000000000000000000000000000000000000000000000000000000000815260040161248a90613d6e565b60405180910390fd5b805181602001fd5b63150b7a0260e01b7bffffffffffffffffffffffffffffffffffffffffffffffffffffffff1916817bffffffffffffffffffffffffffffffffffffffffffffffffffffffff1916149150506124f0565b600190505b949350505050565b606060006001612507846125f3565b01905060008167ffffffffffffffff81111561252657612525612d2b565b5b6040519080825280601f01601f1916602001820160405280156125585781602001600182028036833780820191505090505b509050600082602001820190505b6001156125c5578080600190039150507f3031323334353637383961626364656600000000000000000000000000000000600a86061a8153600a85816125af576125ae613337565b5b04945060008514156125c0576125c5565b612566565b819350505050919050565b6000808273ffffffffffffffffffffffffffffffffffffffff163b119050919050565b600080600090507a184f03e93ff9f4daa797ed6e38ed64bf6a1f0100000000000000008310612651577a184f03e93ff9f4daa797ed6e38ed64bf6a1f010000000000000000838161264757612646613337565b5b0492506040810190505b6d04ee2d6d415b85acef8100000000831061268e576d04ee2d6d415b85acef8100000000838161268457612683613337565b5b0492506020810190505b662386f26fc1000083106126bd57662386f26fc1000083816126b3576126b2613337565b5b0492506010810190505b6305f5e10083106126e6576305f5e10083816126dc576126db613337565b5b0492506008810190505b612710831061270b57612710838161270157612700613337565b5b0492506004810190505b6064831061272e576064838161272457612723613337565b5b0492506002810190505b600a831061273d576001810190505b80915050919050565b82805461275290613129565b90600052602060002090601f01602090048101928261277457600085556127bb565b82601f1061278d57805160ff19168380011785556127bb565b828001600101855582156127bb579182015b828111156127ba57825182559160200191906001019061279f565b5b5090506127c89190612819565b5090565b828054828255906000526020600020908101928215612808579160200282015b828111156128075782518255916020019190600101906127ec565b5b5090506128159190612819565b5090565b5b8082111561283257600081600090555060010161281a565b5090565b6000604051905090565b600080fd5b600080fd5b60007fffffffff0000000000000000000000000000000000000000000000000000000082169050919050565b61287f8161284a565b811461288a57600080fd5b50565b60008135905061289c81612876565b92915050565b6000602082840312156128b8576128b7612840565b5b60006128c68482850161288d565b91505092915050565b60008115159050919050565b6128e4816128cf565b82525050565b60006020820190506128ff60008301846128db565b92915050565b600081519050919050565b600082825260208201905092915050565b60005b8381101561293f578082015181840152602081019050612924565b8381111561294e576000848401525b50505050565b6000601f19601f8301169050919050565b600061297082612905565b61297a8185612910565b935061298a818560208601612921565b61299381612954565b840191505092915050565b600060208201905081810360008301526129b88184612965565b905092915050565b6000819050919050565b6129d3816129c0565b81146129de57600080fd5b50565b6000813590506129f0816129ca565b92915050565b600060208284031215612a0c57612a0b612840565b5b6000612a1a848285016129e1565b91505092915050565b600073ffffffffffffffffffffffffffffffffffffffff82169050919050565b6000612a4e82612a23565b9050919050565b612a5e81612a43565b82525050565b6000602082019050612a796000830184612a55565b92915050565b612a8881612a43565b8114612a9357600080fd5b50565b600081359050612aa581612a7f565b92915050565b60008060408385031215612ac257612ac1612840565b5b6000612ad085828601612a96565b9250506020612ae1858286016129e1565b9150509250929050565b60008060408385031215612b0257612b01612840565b5b6000612b10858286016129e1565b9250506020612b21858286016129e1565b9150509250929050565b600080600060608486031215612b4457612b43612840565b5b6000612b5286828701612a96565b9350506020612b6386828701612a96565b9250506040612b74868287016129e1565b9150509250925092565b612b87816129c0565b82525050565b6000602082019050612ba26000830184612b7e565b92915050565b600081519050919050565b600082825260208201905092915050565b6000819050602082019050919050565b612bdd816129c0565b82525050565b6000612bef8383612bd4565b60208301905092915050565b6000602082019050919050565b6000612c1382612ba8565b612c1d8185612bb3565b9350612c2883612bc4565b8060005b83811015612c59578151612c408882612be3565b9750612c4b83612bfb565b925050600181019050612c2c565b5085935050505092915050565b60006020820190508181036000830152612c808184612c08565b905092915050565b600060208284031215612c9e57612c9d612840565b5b6000612cac84828501612a96565b91505092915050565b612cbe816128cf565b8114612cc957600080fd5b50565b600081359050612cdb81612cb5565b92915050565b60008060408385031215612cf857612cf7612840565b5b6000612d0685828601612a96565b9250506020612d1785828601612ccc565b9150509250929050565b600080fd5b600080fd5b7f4e487b7100000000000000000000000000000000000000000000000000000000600052604160045260246000fd5b612d6382612954565b810181811067ffffffffffffffff82111715612d8257612d81612d2b565b5b80604052505050565b6000612d95612836565b9050612da18282612d5a565b919050565b600067ffffffffffffffff821115612dc157612dc0612d2b565b5b612dca82612954565b9050602081019050919050565b82818337600083830152505050565b6000612df9612df484612da6565b612d8b565b905082815260208101848484011115612e1557612e14612d26565b5b612e20848285612dd7565b509392505050565b600082601f830112612e3d57612e3c612d21565b5b8135612e4d848260208601612de6565b91505092915050565b60008060008060808587031215612e7057612e6f612840565b5b6000612e7e87828801612a96565b9450506020612e8f87828801612a96565b9350506040612ea0878288016129e1565b925050606085013567ffffffffffffffff811115612ec157612ec0612845565b5b612ecd87828801612e28565b91505092959194509250565b60008060408385031215612ef057612eef612840565b5b6000612efe85828601612a96565b9250506020612f0f85828601612a96565b9150509250929050565b600067ffffffffffffffff821115612f3457612f33612d2b565b5b612f3d82612954565b9050602081019050919050565b6000612f5d612f5884612f19565b612d8b565b905082815260208101848484011115612f7957612f78612d26565b5b612f84848285612dd7565b509392505050565b600082601f830112612fa157612fa0612d21565b5b8135612fb1848260208601612f4a565b91505092915050565b600067ffffffffffffffff821115612fd557612fd4612d2b565b5b602082029050602081019050919050565b600080fd5b6000612ffe612ff984612fba565b612d8b565b9050808382526020820190506020840283018581111561302157613020612fe6565b5b835b8181101561304a578061303688826129e1565b845260208401935050602081019050613023565b5050509392505050565b600082601f83011261306957613068612d21565b5b8135613079848260208601612feb565b91505092915050565b6000806040838503121561309957613098612840565b5b600083013567ffffffffffffffff8111156130b7576130b6612845565b5b6130c385828601612f8c565b925050602083013567ffffffffffffffff8111156130e4576130e3612845565b5b6130f085828601613054565b9150509250929050565b7f4e487b7100000000000000000000000000000000000000000000000000000000600052602260045260246000fd5b6000600282049050600182168061314157607f821691505b60208210811415613155576131546130fa565b5b50919050565b7f4552433732313a20617070726f76616c20746f2063757272656e74206f776e6560008201527f7200000000000000000000000000000000000000000000000000000000000000602082015250565b60006131b7602183612910565b91506131c28261315b565b604082019050919050565b600060208201905081810360008301526131e6816131aa565b9050919050565b7f4552433732313a20617070726f76652063616c6c6572206973206e6f7420746f60008201527f6b656e206f776e6572206f7220617070726f76656420666f7220616c6c000000602082015250565b6000613249603d83612910565b9150613254826131ed565b604082019050919050565b600060208201905081810360008301526132788161323c565b9050919050565b7f636c61696d446f6e6174696f6e3a20546865726520617265206e6f2066756e6460008201527f7320746f20626520636c61696d656420666f722074686973207061697220286260208201527f656e65666963696172792c20636c61696d656529000000000000000000000000604082015250565b6000613301605483612910565b915061330c8261327f565b606082019050919050565b60006020820190508181036000830152613330816132f4565b9050919050565b7f4e487b7100000000000000000000000000000000000000000000000000000000600052601260045260246000fd5b7f4e487b7100000000000000000000000000000000000000000000000000000000600052601160045260246000fd5b60006133a0826129c0565b91506133ab836129c0565b9250826133bb576133ba613337565b5b828204905092915050565b60006060820190506133db6000830186612b7e565b6133e86020830185612b7e565b6133f56040830184612b7e565b949350505050565b6000613408826129c0565b9150613413836129c0565b9250827fffffffffffffffffffffffffffffffffffffffffffffffffffffffffffffffff0382111561344857613447613366565b5b828201905092915050565b600061345e826129c0565b9150613469836129c0565b92508282101561347c5761347b613366565b5b828203905092915050565b600081905092915050565b50565b60006134a2600083613487565b91506134ad82613492565b600082019050919050565b60006134c382613495565b9150819050919050565b7f636c61696d446f6e6174696f6e3a205472616e73666572206f662062656e656660008201527f69636961727927732066756e6473206661696c65640000000000000000000000602082015250565b6000613529603583612910565b9150613534826134cd565b604082019050919050565b600060208201905081810360008301526135588161351c565b9050919050565b7f636c61696d446f6e6174696f6e3a205472616e73666572206f6620636c61696d60008201527f657227732066756e6473206661696c6564000000000000000000000000000000602082015250565b60006135bb603183612910565b91506135c68261355f565b604082019050919050565b600060208201905081810360008301526135ea816135ae565b9050919050565b7f4552433732313a2063616c6c6572206973206e6f7420746f6b656e206f776e6560008201527f72206f7220617070726f76656400000000000000000000000000000000000000602082015250565b600061364d602d83612910565b9150613658826135f1565b604082019050919050565b6000602082019050818103600083015261367c81613640565b9050919050565b600061368e826129c0565b9150613699836129c0565b9250817fffffffffffffffffffffffffffffffffffffffffffffffffffffffffffffffff04831182151516156136d2576136d1613366565b5b828202905092915050565b7f5f6765745265666572656e636573203a20656e74657220612076616c6964207460008201527f6f6b656e20496400000000000000000000000000000000000000000000000000602082015250565b6000613739602783612910565b9150613744826136dd565b604082019050919050565b600060208201905081810360008301526137688161372c565b9050919050565b7f6f6e6c79206f776e6572206f662074686520746f6b656e2063616e207365742060008201527f6120666f6c6c6f77206d65200000000000000000000000000000000000000000602082015250565b60006137cb602c83612910565b91506137d68261376f565b604082019050919050565b600060208201905081810360008301526137fa816137be565b9050919050565b7f4552433732313a20696e76616c696420746f6b656e2049440000000000000000600082015250565b6000613837601883612910565b915061384282613801565b602082019050919050565b600060208201905081810360008301526138668161382a565b9050919050565b7f4552433732313a2061646472657373207a65726f206973206e6f74206120766160008201527f6c6964206f776e65720000000000000000000000000000000000000000000000602082015250565b60006138c9602983612910565b91506138d48261386d565b604082019050919050565b600060208201905081810360008301526138f8816138bc565b9050919050565b600081905092915050565b600061391582612905565b61391f81856138ff565b935061392f818560208601612921565b80840191505092915050565b6000613947828561390a565b9150613953828461390a565b91508190509392505050565b7f546f6b656e20646f6573206e6f742065786973742e0000000000000000000000600082015250565b6000613995601583612910565b91506139a08261395f565b602082019050919050565b600060208201905081810360008301526139c481613988565b9050919050565b60006060820190506139e06000830186612a55565b6139ed6020830185612b7e565b6139fa6040830184612b7e565b949350505050565b7f4f776e61626c653a206e6577206f776e657220697320746865207a65726f206160008201527f6464726573730000000000000000000000000000000000000000000000000000602082015250565b6000613a5e602683612910565b9150613a6982613a02565b604082019050919050565b60006020820190508181036000830152613a8d81613a51565b9050919050565b7f5265656e7472616e637947756172643a207265656e7472616e742063616c6c00600082015250565b6000613aca601f83612910565b9150613ad582613a94565b602082019050919050565b60006020820190508181036000830152613af981613abd565b9050919050565b7f4552433732313a207472616e736665722066726f6d20696e636f72726563742060008201527f6f776e6572000000000000000000000000000000000000000000000000000000602082015250565b6000613b5c602583612910565b9150613b6782613b00565b604082019050919050565b60006020820190508181036000830152613b8b81613b4f565b9050919050565b7f4552433732313a207472616e7366657220746f20746865207a65726f2061646460008201527f7265737300000000000000000000000000000000000000000000000000000000602082015250565b6000613bee602483612910565b9150613bf982613b92565b604082019050919050565b60006020820190508181036000830152613c1d81613be1565b9050919050565b7f4f776e61626c653a2063616c6c6572206973206e6f7420746865206f776e6572600082015250565b6000613c5a602083612910565b9150613c6582613c24565b602082019050919050565b60006020820190508181036000830152613c8981613c4d565b9050919050565b7f4552433732313a20617070726f766520746f2063616c6c657200000000000000600082015250565b6000613cc6601983612910565b9150613cd182613c90565b602082019050919050565b60006020820190508181036000830152613cf581613cb9565b9050919050565b7f4552433732313a207472616e7366657220746f206e6f6e20455243373231526560008201527f63656976657220696d706c656d656e7465720000000000000000000000000000602082015250565b6000613d58603283612910565b9150613d6382613cfc565b604082019050919050565b60006020820190508181036000830152613d8781613d4b565b9050919050565b7f4552433732313a206d696e7420746f20746865207a65726f2061646472657373600082015250565b6000613dc4602083612910565b9150613dcf82613d8e565b602082019050919050565b60006020820190508181036000830152613df381613db7565b9050919050565b7f4552433732313a20746f6b656e20616c7265616479206d696e74656400000000600082015250565b6000613e30601c83612910565b9150613e3b82613dfa565b602082019050919050565b60006020820190508181036000830152613e5f81613e23565b9050919050565b7f45524337323155524953746f726167653a2055524920736574206f66206e6f6e60008201527f6578697374656e7420746f6b656e000000000000000000000000000000000000602082015250565b6000613ec2602e83612910565b9150613ecd82613e66565b604082019050919050565b60006020820190508181036000830152613ef181613eb5565b9050919050565b7f4e487b7100000000000000000000000000000000000000000000000000000000600052603260045260246000fd5b7f5f6372656174655265666572656e6365733a20496e76616c696420746f6b656e60008201527f496420696e205265666572656e636520656e7472696573000000000000000000602082015250565b6000613f83603783612910565b9150613f8e82613f27565b604082019050919050565b60006020820190508181036000830152613fb281613f76565b9050919050565b6000613fc4826129c0565b91507fffffffffffffffffffffffffffffffffffffffffffffffffffffffffffffffff821415613ff757613ff6613366565b5b600182019050919050565b600081519050919050565b600082825260208201905092915050565b600061402982614002565b614033818561400d565b9350614043818560208601612921565b61404c81612954565b840191505092915050565b600060808201905061406c6000830187612a55565b6140796020830186612a55565b6140866040830185612b7e565b8181036060830152614098818461401e565b905095945050505050565b6000815190506140b281612876565b92915050565b6000602082840312156140ce576140cd612840565b5b60006140dc848285016140a3565b9150509291505056fea2646970667358221220980eeebd309596593ba97b5a30ebf047291665be77776721fef7793d1ca3c34964736f6c634300080a0033",
  "devdoc": {
    "kind": "dev",
    "methods": {
      "approve(address,uint256)": {
        "details": "See {IERC721-approve}."
      },
      "balanceOf(address)": {
        "details": "See {IERC721-balanceOf}."
      },
      "claimDonation(uint256,uint256)": {
        "details": "sender pulls a fee  and sends claimable value to address of the owner of _to_: callable by any address",
        "params": {
          "from": "id of the token that received the donation   ",
          "to": "id of the token whose owner is the beneficiary"
        }
      },
      "claimable(uint256,uint256)": {
        "details": "owner of the token that received the donation has a claim to 2/3 owners of references split the remaining 1/3   ",
        "params": {
          "beneficiary": "tokenId whose owner have a claim over part of the tokenDonationBalance",
          "claimee": "tokenId that received the donation"
        },
        "returns": {
          "_0": "_ value that _beneficiary_ can receive for that particular _claimee_"
        }
      },
      "donate(uint256)": {
        "details": "receives payment as donation updated _totalDonated[tokenId] if there is a _followMe set for _tokenId_ uses this entry as tokenId "
      },
      "getApproved(uint256)": {
        "details": "See {IERC721-getApproved}."
      },
      "isApprovedForAll(address,address)": {
        "details": "See {IERC721-isApprovedForAll}."
      },
      "name()": {
        "details": "See {IERC721Metadata-name}."
      },
      "owner()": {
        "details": "Returns the address of the current owner."
      },
      "ownerOf(uint256)": {
        "details": "See {IERC721-ownerOf}."
      },
      "renounceOwnership()": {
        "details": "Leaves the contract without owner. It will not be possible to call `onlyOwner` functions anymore. Can only be called by the current owner. NOTE: Renouncing ownership will leave the contract without an owner, thereby removing any functionality that is only available to the owner."
      },
      "safeTransferFrom(address,address,uint256)": {
        "details": "See {IERC721-safeTransferFrom}."
      },
      "safeTransferFrom(address,address,uint256,bytes)": {
        "details": "See {IERC721-safeTransferFrom}."
      },
      "setApprovalForAll(address,bool)": {
        "details": "See {IERC721-setApprovalForAll}."
      },
      "supportsInterface(bytes4)": {
        "details": "See {IERC165-supportsInterface}."
      },
      "symbol()": {
        "details": "See {IERC721Metadata-symbol}."
      },
      "tokenURI(uint256)": {
        "details": "See {IERC721Metadata-tokenURI}."
      },
      "transferFrom(address,address,uint256)": {
        "details": "See {IERC721-transferFrom}."
      },
      "transferOwnership(address)": {
        "details": "Transfers ownership of the contract to a new account (`newOwner`). Can only be called by the current owner."
      }
    },
    "stateVariables": {
      "_balanceClaimed": {
        "details": "total value ever claimed to _tokenTo_ from _tokenFrom_'s donations maps _(beneficiary, claimee)_ to _value_ _beneficiary_ is the token claiming part of the donation _claimee_ is the token that received the donation and is having its balance claimed"
      },
      "_followMe": {
        "details": "donations to _from_ are automatically sent to _to_ this mapping allows new tokens to be minted with updated references donations sent to old token are still received by the new one with the right split"
      },
      "_references": {
        "details": "list of references created for _tokenId_ list cannot be updated if references must be changed new token should be minted maps _tokenId_ to _reference list_"
      },
      "_totalClaimed": {
        "details": "total value ever claimed from _tokenId_'s donations maps _tokenId_ to _value_"
      },
      "_totalDonated": {
        "details": "total value ever donated to tokenId maps _tokenId_ to _value_"
      }
    },
    "version": 1
  },
  "userdoc": {
    "kind": "user",
    "methods": {
      "claimable(uint256,uint256)": {
        "notice": "gets the value that can be claimed for a pair (beneficiary, claimee)"
      }
    },
    "version": 1
  },
  "storageLayout": {
    "storage": [
      {
        "astId": 192,
        "contract": "contracts/NFT.sol:NFT",
        "label": "_name",
        "offset": 0,
        "slot": "0",
        "type": "t_string_storage"
      },
      {
        "astId": 194,
        "contract": "contracts/NFT.sol:NFT",
        "label": "_symbol",
        "offset": 0,
        "slot": "1",
        "type": "t_string_storage"
      },
      {
        "astId": 198,
        "contract": "contracts/NFT.sol:NFT",
        "label": "_owners",
        "offset": 0,
        "slot": "2",
        "type": "t_mapping(t_uint256,t_address)"
      },
      {
        "astId": 202,
        "contract": "contracts/NFT.sol:NFT",
        "label": "_balances",
        "offset": 0,
        "slot": "3",
        "type": "t_mapping(t_address,t_uint256)"
      },
      {
        "astId": 206,
        "contract": "contracts/NFT.sol:NFT",
        "label": "_tokenApprovals",
        "offset": 0,
        "slot": "4",
        "type": "t_mapping(t_uint256,t_address)"
      },
      {
        "astId": 212,
        "contract": "contracts/NFT.sol:NFT",
        "label": "_operatorApprovals",
        "offset": 0,
        "slot": "5",
        "type": "t_mapping(t_address,t_mapping(t_address,t_bool))"
      },
      {
        "astId": 1258,
        "contract": "contracts/NFT.sol:NFT",
        "label": "_tokenURIs",
        "offset": 0,
        "slot": "6",
        "type": "t_mapping(t_uint256,t_string_storage)"
      },
      {
        "astId": 123,
        "contract": "contracts/NFT.sol:NFT",
        "label": "_status",
        "offset": 0,
        "slot": "7",
        "type": "t_uint256"
      },
      {
        "astId": 7,
        "contract": "contracts/NFT.sol:NFT",
        "label": "_owner",
        "offset": 0,
        "slot": "8",
        "type": "t_address"
      },
      {
        "astId": 3234,
        "contract": "contracts/NFT.sol:NFT",
        "label": "_tokenIds",
        "offset": 0,
        "slot": "9",
        "type": "t_struct(Counter)1755_storage"
      },
      {
        "astId": 3239,
        "contract": "contracts/NFT.sol:NFT",
        "label": "_totalDonated",
        "offset": 0,
        "slot": "10",
        "type": "t_mapping(t_uint256,t_uint256)"
      },
      {
        "astId": 3244,
        "contract": "contracts/NFT.sol:NFT",
        "label": "_totalClaimed",
        "offset": 0,
        "slot": "11",
        "type": "t_mapping(t_uint256,t_uint256)"
      },
      {
        "astId": 3251,
        "contract": "contracts/NFT.sol:NFT",
        "label": "_balanceClaimed",
        "offset": 0,
        "slot": "12",
        "type": "t_mapping(t_uint256,t_mapping(t_uint256,t_uint256))"
      },
      {
        "astId": 3257,
        "contract": "contracts/NFT.sol:NFT",
        "label": "_references",
        "offset": 0,
        "slot": "13",
        "type": "t_mapping(t_uint256,t_array(t_uint256)dyn_storage)"
      },
      {
        "astId": 3262,
        "contract": "contracts/NFT.sol:NFT",
        "label": "_followMe",
        "offset": 0,
        "slot": "14",
        "type": "t_mapping(t_uint256,t_uint256)"
      },
      {
        "astId": 3264,
        "contract": "contracts/NFT.sol:NFT",
        "label": "_treasuryBalance",
        "offset": 0,
        "slot": "15",
        "type": "t_uint256"
      }
    ],
    "types": {
      "t_address": {
        "encoding": "inplace",
        "label": "address",
        "numberOfBytes": "20"
      },
      "t_array(t_uint256)dyn_storage": {
        "base": "t_uint256",
        "encoding": "dynamic_array",
        "label": "uint256[]",
        "numberOfBytes": "32"
      },
      "t_bool": {
        "encoding": "inplace",
        "label": "bool",
        "numberOfBytes": "1"
      },
      "t_mapping(t_address,t_bool)": {
        "encoding": "mapping",
        "key": "t_address",
        "label": "mapping(address => bool)",
        "numberOfBytes": "32",
        "value": "t_bool"
      },
      "t_mapping(t_address,t_mapping(t_address,t_bool))": {
        "encoding": "mapping",
        "key": "t_address",
        "label": "mapping(address => mapping(address => bool))",
        "numberOfBytes": "32",
        "value": "t_mapping(t_address,t_bool)"
      },
      "t_mapping(t_address,t_uint256)": {
        "encoding": "mapping",
        "key": "t_address",
        "label": "mapping(address => uint256)",
        "numberOfBytes": "32",
        "value": "t_uint256"
      },
      "t_mapping(t_uint256,t_address)": {
        "encoding": "mapping",
        "key": "t_uint256",
        "label": "mapping(uint256 => address)",
        "numberOfBytes": "32",
        "value": "t_address"
      },
      "t_mapping(t_uint256,t_array(t_uint256)dyn_storage)": {
        "encoding": "mapping",
        "key": "t_uint256",
        "label": "mapping(uint256 => uint256[])",
        "numberOfBytes": "32",
        "value": "t_array(t_uint256)dyn_storage"
      },
      "t_mapping(t_uint256,t_mapping(t_uint256,t_uint256))": {
        "encoding": "mapping",
        "key": "t_uint256",
        "label": "mapping(uint256 => mapping(uint256 => uint256))",
        "numberOfBytes": "32",
        "value": "t_mapping(t_uint256,t_uint256)"
      },
      "t_mapping(t_uint256,t_string_storage)": {
        "encoding": "mapping",
        "key": "t_uint256",
        "label": "mapping(uint256 => string)",
        "numberOfBytes": "32",
        "value": "t_string_storage"
      },
      "t_mapping(t_uint256,t_uint256)": {
        "encoding": "mapping",
        "key": "t_uint256",
        "label": "mapping(uint256 => uint256)",
        "numberOfBytes": "32",
        "value": "t_uint256"
      },
      "t_string_storage": {
        "encoding": "bytes",
        "label": "string",
        "numberOfBytes": "32"
      },
      "t_struct(Counter)1755_storage": {
        "encoding": "inplace",
        "label": "struct Counters.Counter",
        "members": [
          {
            "astId": 1754,
            "contract": "contracts/NFT.sol:NFT",
            "label": "_value",
            "offset": 0,
            "slot": "0",
            "type": "t_uint256"
          }
        ],
        "numberOfBytes": "32"
      },
      "t_uint256": {
        "encoding": "inplace",
        "label": "uint256",
        "numberOfBytes": "32"
      }
    }
  }
}